:100000006F10105500000000D2160000D41600003A
:1000100000000000000000000000000000000000E0
:1000200000000000000000000000000000000000D0
:100030004E1D0000000000004E1D000000000000EA
:100040004E1D00004E1D00004E1D00004E1D000004
:10005000C417000006190000801600004E1D0000A5
:10006000641600004E1D00004E1D00004E1D0000D5
:100070004E1D00004E1D00004E1D00004E1D0000D4
:100080004E1D00004E1D00004E1D00008C1800008B
:100090004E1D00004E1D0000121600000000000062
:1000A000511126C022C206C4828282441244A24058
:1000B000310182802A86014593F6150091C232955E
:1000C00085810606F5F9828000000000634E050276
:1000D00063C305042E86AA857D5515C285466378BF
:1000E000B6006356C00006068606E36CB6FE014500
:1000F00063E4C500918D558D85820582F5FA828075
:100100008682C93F2E8582823305A04063D70500D1
:10011000B305B040C1B7B305B0408682653F330533
:10012000A0408282868263C70500634905005D376F
:100130002E858282B305B040E35B05FE3305A04007
:10014000513F3305B040828200003D432A876373EC
:10015000C3029377F700BDEFADE5937606FF3D8AC6
:10016000BA960CC34CC30CC74CC74107E36BD7FE10
:1001700011E28280B306C3408A0697020000969679
:100180006780A6002307B700A306B7002306B700C1
:10019000A305B7002305B700A304B7002304B700E5
:1001A000A303B7002303B700A302B7002302B700DD
:1001B000A301B7002301B700A300B7002300B700D5
:1001C000828093F5F50F93968500D58D9396050162
:1001D000D58D61B793962700970200009696868288
:1001E000E78086FA9680C1171D8F3E96E374C3F8A8
:1001F000A5B737070020930787098AA7AEA7D6A718
:10020000AAABCEABF2A7239807001307870909C64C
:100210009306400B6315D6004AA36EA38280CEA33B
:10022000EAA38280B707002093878709FA279306FD
:10023000A00542074183630FD70063E4E60015C3BE
:1002400082809306400B6303D7029306E010630C91
:10025000D70282809E27FD178D8FAA8513950701EF
:100260004181EFF2FFE3EF00306281B59A27BE27AC
:100270007D173305A740FD174205B385B74041817F
:10028000C205C181F9BFBE27FD17898F2E859395C1
:100290000701C5BFEFF2DFE013971600C206C18267
:1002A00093041500958CC204B28221112E837D1710
:1002B000C18001466370E60813041300158C4206E2
:1002C000420441824180814732C091A813950401C4
:1002D000418563400504131604014186634B060201
:1002E000B70500209385850983D3450063537502C4
:1002F000EE216350B6021686A28526851ACA36C834
:100300003EC63AC416C2393F5243C246B24722479C
:10031000924285070504C2074204C1874180E3E792
:10032000E7FA82478504C204138617004206C1809B
:10033000418649B7610195BBEFF29FD6130181FD5C
:100340003ECEB307A6403ACC13D7F741B98F998F69
:10035000E207E1873387B6403EC49357F7413D8FAC
:10036000998FE207E1873EC6854732C036C23EC854
:10037000AA822E846364C500FD573EC885473ECAE5
:1003800092476364F400FD573ECA3247A2470246D3
:10039000B384E700238E5180A38E8180370700202D
:1003A0001307070023ACE18092461685A28516D07C
:1003B000EF00901E82520147D257050785461377FA
:1003C000F70F639CD7003A858D4516D23AD00D3B86
:1003D0001375F50F0257925211C9F24662461685FF
:1003E000A2853AD216D07D3512578252B2479396E3
:1003F000140063CFF60082476380F204B247A697E9
:1004000093940701C247C184BE92C20293D20201F3
:10041000A24793961400E3C1D7FA9247630EF40003
:10042000A247A69793940701D247C1843303F400EF
:1004300013140301418049B713151700EF0010345E
:10044000130181029DB1EFF2BFC5311136C682564C
:100450002AC232C43AC82E84BE84B1EAAE8602C033
:10046000E13D12464247B246A687A285328502C0C8
:10047000E13522464247B246A687A285328502C0B0
:10048000653DB24642472246124502C0A687B68560
:1004900065350DA0424722461245A286A28502C0BC
:1004A000A687593D13031400131403014180B2477A
:1004B000E3F287FE5101D5BEEFF29FBE01113AC2B1
:1004C000370700202AC03EC613070701AE843684D2
:1004D000639CE60A8D6781459387C71DC1463385B6
:1004E000F5000821630FC5128505E39AD5FE014585
:1004F000B707002093878709DA2382466364D70809
:10050000FE2363E197081C4072204E20AA97238E99
:10051000D1803EC4B6879386F4FFB2961386F7FF68
:100520002E96C2064206A38E9180C1823E854182EC
:10053000A68523AC8180EF003006938781813EC879
:10054000A247A6863387964072204207418363689C
:10055000C70CC2479C43EE23CA23A93E13141500BF
:100560009307F04763C587002285EF00302193058C
:1005700000482285453E19C59307004863D487008B
:10058000EF00D01F056115B60305C102EE22330549
:10059000A6400D364E209D058D81293E91BF1376D4
:1005A00077009375770032C4130600083356B640BF
:1005B0008C236D8E29C23ECE82473246B6853305E6
:1005C000F700420541813ACC36CAA939D246624782
:1005D000F247A2451D466393C500850705074207FC
:1005E00041835220E36DC7FA1D8A11C28507850633
:1005F000C206C18281BF924541667D16E38BC5FC70
:100600003ECE82472E86B6853305F70042054181EE
:100610003ACC36CA0139F2476247D2465DBF01473C
:10062000C9B75E236A239D078D873EC46134A24704
:10063000AA853E859DB7EFF2BFA6130181FD3EC698
:1006400083074103AA832EC23EC88357810332C465
:10065000B6823ACA3ECC2E842A83B2840386040032
:1006600001E61301810291B4B70600209387860941
:1006700003D74200CE23938686091A9783D7620058
:100680006346B7003E94420441801E83FA22B306BB
:10069000F4006354D70012441E8331476392E70489
:1006A000A2476247B387F440C207C183631AF702C7
:1006B000C247416796863EC0B2471A851307078036
:1006C000A2851ED216D01ACEC53B724382529253D7
:1006D00083D7420085043E93420313530301BDBFF9
:1006E000C247524796863EC0B2471A85A2851ED29F
:1006F00016D01ACED133925382527243D1BFEFF249
:100700003F9A31118545056502C002C202C402C686
:1007100023180100EF10D04DB70704013EC0B70702
:1007200000023EC4A1473EC68A859D473735014039
:10073000FC8002C2EF105055854537350140EF105F
:10074000D05751019DB2EFF2BF951301C1FB2A842E
:100750002EC6B28481451306C002280836C43AC2A8
:100760003EC0E53285450545EF10B0462285EF10C5
:10077000B00082473243A246124741463ED62C087B
:100780008D6722851ACC36D23ADC3EDE26CE32D0B8
:1007900002D402D802DA82C0EF103007054689453C
:1007A0002285EF10500BE147FC80080885473ECAC0
:1007B00023090100EF101024130141046FF0FF8E94
:1007C000EFF21F8EAA840144894537350140EF10AE
:1007D00010521DC1A68537350140EF10D050854518
:1007E00037350140EF10B05015C137350140EF10DB
:1007F000D04F1375F50F09A805041374F40F930770
:10080000900CE313F4FC01456FF03F8A0504137468
:10081000F40F9307900CE314F4FCF5B713074006AC
:100820009377F50F6374A7009307400637370140AD
:10083000232CF7C28280130740069377F50F637469
:10084000A7009307400637370140232AF7C282806A
:10085000EFF21F8583C7E18105471384E18163853A
:10086000E70485C709476383E70618209317170035
:10087000BA9713972700B707002093874702BA97C4
:100880009C4791C382976FF05F829307400663D9BC
:10089000A70013054006B737014023AEA7C2F1B742
:1008A000E35B05FE0145C5BF9307400663DCA70077
:1008B000130540061375F50FB70700202380A70224
:1008C000B13F65B7E35805FE0145EDB79307400614
:1008D00063DCA700130540061375F50FB70700206A
:1008E000A380A702893F51B7E35805FE0145EDB744
:1008F000EFF20FFB211132C4AA821304007E99E1AA
:1009000041647D1489471397120063E857148D677B
:100910009387C71EBA9796239397320096978607B8
:10092000D907C207C1833703002016973EC60A07BE
:10093000930743023E9710439304430291E13684A8
:10094000A246B2459303703E930710061EC20147AC
:100950003EC00145A28716C8F939C2420D464C086F
:100960001393120016930A039A94DC408823EF2015
:1009700060288840EF20C032A24793053500CA2383
:10098000EFF04FF3B2459303703E1EC2930700038E
:10099000B7030020420593868301014750083EC0FB
:1009A0004181A28749398840EF20802FA2479305D3
:1009B0003500CA23EFF00FF0B703002093838301C3
:1009C00003D74300A246B24593171700BA973E9546
:1009D0004205A287014713065002418102C0E93C4B
:1009E000DC40C24221679C231307F7BE02C0139369
:1009F00017003E930A033303F34093973200BE92ED
:100A0000860293826202C20293D202019384A20000
:100A1000C204C1800E038547A6861306C0069685CC
:100A200051451AC616C4053432439307300663D3C2
:100A30006702930540061A85EFF04FE9A2421306BC
:100A40004501854742063EC02287A686418296859B
:100A50005145D53A61016FF04FE5C166FD166DBD98
:100A6000EFF20FE437040020834734025111B5C37D
:100A7000014793060008130600088145AA84014532
:100A8000492E9307703E3EC2930710063EC0B7063C
:100A90000020C16737360000FD1793860601014725
:100AA0001306461F894513050002713613043402EC
:100AB000814783C5E1813E8526869D8D93B51500CE
:100AC0003EC43D35A2470D478507E394E7FE23006A
:100AD000040031016FF06FDDEFF28FDC03A4419869
:100AE0008544631B940403C7E18193171700BA97E9
:100AF00013972700B707002093874702BA97DC4374
:100B000088231505B133B7070020A3818702B707F3
:100B1000002083A407058547639EF4001384E181C8
:100B200008208D450505EFF0EFDFB707002008A08E
:100B3000A38197026FF06FD78947E31AF4FC03C7CC
:100B4000E18193171700BA9713972700B707002082
:100B500093874702BA97DC4388236D15D539B707C9
:100B60000020A381970265B7EFF28FD337070020EB
:100B7000C1662A8413072702FD160146894513051D
:100B8000A005EF0050062285E13DB9376FF0EFD1A7
:100B9000EFF20FD13705002013050501F137B70734
:100BA000002023A8070423A201986FF00FD0EFF2D2
:100BB0002FCF2A84914537150140EF10E05EC145E3
:100BC00037150140EF10805E2285DD3EC1453715A7
:100BD0000140EF10605D6FF04FCDEFF26FCC2A84D3
:100BE000914537150140EF10605CC1453715014054
:100BF000EF10C05B2285E936C14537150140EF1083
:100C0000A05A6FF08FCAEFF2AFC94145F9371545C9
:100C1000EF10F0746FF06FC9EFF28FC8ED37373512
:100C200001408145130505C0EF10B03A3705024079
:100C3000814513050503EF10C040B7E700E0370713
:100C4000000123A0E7180146894537350140EF1020
:100C50007008814537350140EF1030068145056544
:100C6000EF10007901456FF04FC4EFF26FC34545B7
:100C7000AD3713058007EF10906E6FF00FC3EFF2E2
:100C80002FC2B53C373501408545130505C0EF102F
:100C900050340546894537350140EF10B00337051C
:100CA0000240854513050503EF10A039B7E700E0C2
:100CB0003707000123A0E7104D3F01456FF0EFBE5D
:100CC000EFF20FBE611185452A8437150140EF1000
:100CD000E04D5145EF10B068854537150140EF10E4
:100CE000A04C5145EF10B067370780009387018211
:100CF0001307070898C313056003C0A3F93D130544
:100D0000800C753501478D64930700041374F70F49
:100D100063D5E70021016FF04FB913864421329764
:100D200005049377F40F002393968701E1862285CB
:100D300036C03EC25D359375740F130610021387DB
:100D4000442182466388C50245466305C4024104C6
:100D50001374F40F85453946924763F385000546C1
:100D60003384C7001316840161866397C600931607
:100D70008401E186368749BF93871600BA96882298
:100D8000E207E18732C23EC01D3582471246BE8669
:100D90008D6713874721D1BFEFF28FB0850523837D
:100DA0000182A38301829397050161118506C183A6
:100DB0003EC00905939706010906C18393140501F6
:100DC0001305A002131406013EC2C180393513D5A4
:100DD0008400F13B13F5F40FD93B41801355840097
:100DE000F9331375F40FE1331305B002FD33824775
:100DF00013D587006D3B08805D3B924713D5870074
:100E00007D3308826D331305C002C13B21016FF0B1
:100E1000CFA9EFF2EFA85111AA8432843AC42EC0B0
:100E200036C29D3F224731451353870081471377D0
:100E3000F70F9302F01113868182B14563CBF20064
:100E400093861700B303F60023806300B2968907E8
:100E500098A2FD15E5F57D156DF191453715014019
:100E6000EF108034C14537150140EF1020343703AF
:100E70000240B7350140930600129307000813079C
:100E800000021305030313868182B105EFF0BF8BC7
:100E90000546894537350140EF10C06337030240EE
:100EA000130503038545EF10C01933059440B14580
:100EB0002D05EFF0AFA1924702472A84B145338553
:100EC000E7402D05EFF08FA0AA852285EFF08F9ED9
:100ED0008147635FF504894537350140EF10206194
:100EE0007DD937050240814513050503EF106015D4
:100EF0000146894537350140EF10C05D13050020DC
:100F0000EF108018C14537150140EF10E029130498
:100F1000900C854537350140EF10605D1DC13735B8
:100F20000140EF10805C1375F50F31016FF0EF9702
:100F300003C701981377F70F49DF238001988507CE
:100F400049BF7D141374F40F69F40145F9BFEFF242
:100F50002F950545B5330147930600081306000891
:100F6000814501457D35C166FD16014693050008A2
:100F700013050008EFF0EFA76FF02F93EFF24F92F9
:100F8000711191452A8437150140EF10E021C145C8
:100F900037150140EF1080219307001263D48700BA
:100FA000130400120146894537350140238001981A
:100FB000B7040240EF100052138504038145EF107F
:100FC000400893160401B7350140138681829307C8
:100FD00000080147C18213850403B105EFF0AFF6A5
:100FE0000546894537350140EF10C04E138504038F
:100FF0008545EF1000059A87968403C701981377FB
:10100000F70F65DF1305002023800198EF10A0067D
:10101000894537350140EF10804D7DD937050240B5
:10102000814513050503EF10C00101468945373599
:101030000140EF10204A13050020EF10E004930751
:10104000900C8545373501403EC0EF10404A82473D
:1010500015C5C14537150140EF10001522869305CF
:10106000F00F13858182EFF04F8E37350140EF107E
:10107000C0471375F50F11016FF02F83FD1793F71C
:10108000F70FE1F30145C5BFEFF28F812A8403C555
:10109000D18183A781813385A5407111CE2332C0D0
:1010A000EFF04F8183C7C1819306E0111D8C2A9414
:1010B000060463E58604938461829C20B145139500
:1010C00037003E951605EFF06F8002473305A440C8
:1010D00093878182AA971356870090A398B39306AB
:1010E000E011631DD50013050012493D9C20B10796
:1010F0009CA0938771829823310798A311016FE018
:10110000DFFA83C7C1949386C1941386819491EBCF
:101110001C4281EBB7070040DE339CA283A7C19736
:101120001CC2184283A7C19788226317F700B7072C
:101130000040DE33630CF506EFE29FF693171700CD
:10114000BA978A07AA9703A5C197370700400353A8
:101150004702131715002A970A071A976355F700D5
:10116000054723A2E19803A3C197370700408352A4
:101170004702131713001A970A07169763D5E7005B
:10118000894723A2F19883A7C1971CC2B7070040E3
:10119000DE339CA293874198D82309E70547D8A35B
:1011A00023A20198014565296FE03FF082809307F3
:1011B000402863ECA7081307401A81476379A70802
:1011C000EFE21FEE9307C01D63FFA7049307D02231
:1011D00063F1A7069307002663F3A706930550283B
:1011E000130710260D44198D4205418193171500F0
:1011F000998DAA978E07C2053E95C181EFE01FED3C
:101200008D6793878725A2979C23130740063E95F9
:101210009377F50F1375F50F6374A70093074006D6
:101220003E856FE09FE89305D01D1307501A0144D7
:101230005DBF9305E0221307D01D05446DB79305EC
:1012400010261307E022094479BF930740063E8524
:101250008280EFE2FFE4372401401305044081451A
:10126000EF003043B7040240814513858400EF004E
:10127000505D13858400EF00305013050440814514
:10128000EF00D03C814513050020EF1060166FE0A1
:10129000DFE1EFE2FFE0130141FC2A842EC2B284B9
:1012A00081451306C002080836C0EFE01FEA8545F5
:1012B0000545EF1000122285EF00104C9247824640
:1012C0000C083EC8930700083ED2930700103ED496
:1012D000930700403ED6930700023ED822858D67D3
:1012E00036CE3EDA26CA02CC02D002DCEF00F05144
:1012F000054689452285EF001056D9477C84280091
:1013000085473EC623050100EF00D06E1301C103DF
:101310006FE0BFD9EFE2DFD82111614681450A8530
:10132000EFE0BFE2854513050020EF10600C31654A
:1013300037240140EF00907E13050440EF00D029D0
:10134000854737070E008A85130504403EC43AC618
:10135000230AF10002C002C202C8EF00502AB705FA
:10136000000213050440EF00F03F854513050440DB
:10137000EF00D02E854513050440EF00302D1305F6
:101380000440EF00D02E930404402685EF00D02EB9
:101390006DFD1305044037240140EF00702E9304C7
:1013A00004402685EF00702E6DFDB7040240BD4657
:1013B000138601959305C44413858400D93D138594
:1013C00084008545EF00F0479D460546130504401F
:1013D0008545EF00902D854513050440EF00702BE7
:1013E00061016FE09FCCEFE2BFCB01112AC603D5AC
:1013F00001973AC42E84B28436CA553B93074006FF
:101400001383E196224763E2A70E2300A3008347DC
:101410000300B70600203EC4224683C78604938695
:101420008604918F13D6F741B18F918F154663448F
:10143000F6001C23C5CBA2472300070022469CA22E
:10144000B70600209382860183D742001307300637
:1014500013952700637EC7083247898F2245BA97C4
:10146000C207C1830D466C083EC8EF10A0789302F6
:10147000007E9307703E3EC2930700033EC0424584
:10148000D247370300209306830126877008A28580
:1014900016CCEFF04F9AD24732453703002026870B
:1014A0009306830102C02946A285EFF0EF8083A74F
:1014B0008197054737030020E242639DE70C130341
:1014C000830103554300B247B706002002C03E9592
:1014D000420596872687938686000546A285418128
:1014E000EFE09FFD05616FE05FBC2300F30005B7EF
:1014F00032473385A74022463A9542052547418128
:10150000636BC7049307703E3EC2373600009307F3
:1015100000033EC02687A68793868601130606260B
:10152000A285EFF04F91B70700209382870183D700
:101530004200324705466C08B307F740C207C18333
:101540003EC81383E19603450300EF10A06AC16211
:101550009382028039BFAA97C207C1833EC893070E
:10156000703E3EC237360000930700033EC0268718
:10157000A6879386860113064626A285EFF0AF8BD9
:101580001383E1960345030009466C08EF1080665B
:10159000FD42C5B5A1FB1303830103554300B247C8
:1015A000B706002026873E954205968793868600DB
:1015B0000146A285418102C016C6EFE0FFEF224539
:1015C000E5458144EFE01FB1B2421373F50F930379
:1015D000740093F7F40FE3F767F013961400269660
:1015E00013060607420693053400939603014182D1
:1015F000C205168702C08547C182C18132851AC8DB
:1016000016C61EC4EFE05FD385044243B242A24334
:10161000C9B7370700405E3371118545C207C183E2
:101620007C805E3737050040C207C1837C81EF10A4
:10163000002D19C93881348005839387C19763FDD4
:10164000E6009843050798C3854537050040EF102D
:10165000802C11017300203098437D17EDB723AA29
:10166000A196828013050020EF00702101C9054773
:10167000130500202380E198EF0010217300203033
:101680000945EF00D01F31C1938701951387E7010A
:10169000014596238907369542054181E31BF7FEF4
:1016A000BD45EFE03FA39387E19892234205418136
:1016B00013870197B306A6400AA3A506C94563E8A8
:1016C000D50012A30945EF00301C730020308AA317
:1016D000D5BF01A001A0EFE2BF9C1301C1FD85456C
:1016E0001305100302C402C602C802CA02CC02CE0D
:1016F00002D002C002C2EF00B04F3715014091473F
:10170000130480042C00130505407C8422C8EF00DC
:1017100050212C00894437150140648422C8EF0011
:101720005020914705443ECA4808C1473ECE22D0CA
:1017300002CCEF00F0150947C14748083ACA3ECE2F
:1017400022D002CCEF00D014930740110A857C8090
:10175000448122C2EF00102A130141026FE0FF947E
:10176000EFE21F941384D19823AA01961C2093F7CB
:10177000F70FB9C7B707002003A5C706B7450F0085
:1017800093850524EFE01F959305F5FFC2055146AB
:10179000C18113054006852E85452D455929EFF059
:1017A0000FCEEFF03FB7716513050520EF10C03E77
:1017B000B707002023A8070423A2019823000400F0
:1017C0006FE0BF8E1145EF00501321C91145EF00A6
:1017D000B01437150140914513050540EF00301C4A
:1017E000B70700209387C704054705C5B2270567DB
:1017F000130787BBD4276366C70099C60547D8C3BC
:1018000001A80947D8C389E6054723A20700D8A73E
:101810000D4798C323950700A1370945EF00F00D48
:1018200011CD894537150140EF00701713351500AC
:1018300023ACA19635370945EF00100E7300203018
:10184000EFE21F861384C1981C2093F7F70F99CFFE
:10185000EFF08FBCEFF0FF9F612EBD2137450140B7
:1018600013050580EF10E00B230004006FE0FF83F9
:1018700083C7D19893F7F70F89CBEFE27F82C937FF
:101880000545EF0070206FE05F828280711122C0F9
:10189000373401408545130504C0EF10400621C9C7
:1018A0008545130504C0EF100007938741979843BF
:1018B000B79604009386F63D050763CEE60298C30B
:1018C00037150140914513050540EF00500D05E126
:1018D000370700201307C7043E2793061003850728
:1018E000C207C1833EA763F4F60089471CC30244C4
:1018F00011017300203023A007008547A386F198CB
:101900002386F19875BF13050020EF00007F09C5FD
:1019100013050020EF00500073002030EFE24FF875
:10192000AD2A0545EF00B00C716513050520EF10D9
:10193000A026EF10801FEF10401185452D45D52CB6
:10194000B707002003A5C706B7450F0093850524F8
:10195000EFE04FF89305F5FFC2055146C18113052D
:1019600040065522B707002003C50702EFE01FEB32
:10197000B707002003C51702EFE0FFEBEFF02FB031
:10198000EFF0EFDCEFF01F99EFF0FFD48565938562
:1019900005FA19459D2E712E83C7D19893F7F70F3D
:1019A00089C7EF007002E935C5BFEFF06F9EEFF019
:1019B0004FF5C5BFEFE2CFEE371402401C403707AA
:1019C000FFF8414593E717001CC05C40F98F5CC0ED
:1019D0001C403707F7FE7D17F98F1CC01C403707E6
:1019E000FCFF7D17F98F1CC05C4041777D17F98F94
:1019F0005CC0B7079F001CC4EF0030111C4C93E77C
:101A000007021CCCB717014003A707409386074085
:101A10001377F7F023A0E74003A7074013670708F1
:101A200023A0E74089479CCAB7F7FF1F03C5477D3E
:101A30009307F00F6305F5007D89EF00100DB727C0
:101A400002409843C176FD16719B98C39843136773
:101A5000170098C3B7170240D843D8C3D843758F2F
:101A6000D8C3D843B7060001D8C39843558F98C34D
:101A7000984393166700E3DD06FED843B71602408D
:101A8000719BD8C3D84313672700D8C32147DC42D2
:101A9000B18BE39EE7FE6FE04FE1EFE26FE03717B7
:101AA00002405C43370400209146B18B1304C40606
:101AB0006385D700A1466382D704B7376E01938749
:101AC00007601CC0B7160240DC420840918313F740
:101AD000F700B70700209387C705BA978C23DC422D
:101AE00093F5F50F93F707083357B50081E7EFE05B
:101AF0006FDE2A8718C06FE04FDB5C43B777DC02EC
:101B0000938707C07DBFEFE2AFD9AA8405651301B3
:101B100081FD2E8413050580854532C002CC02CE9E
:101B200002D002D202C602C8231A0100EF00500CF4
:101B30006086373401406C00130504C0E48023192B
:101B4000010023170100EF00D027C1679387070723
:101B500002463ECC9147FC86B707080089072C084F
:101B6000130504C03ED0F087EF00902A130504C08F
:101B70008145EF00F04D2C08130504C0EF00F02F55
:101B8000130504C08145EF00904D2C08130504C0D7
:101B9000231E0100EF00D037130504C08145EF007C
:101BA000704D130504C08545EF00F048130504C0CF
:101BB0008545EF001042130504C08545EF00F03F56
:101BC00005468545130504C0EF0010429307300217
:101BD0007C82480085473EC423030100212D8545B2
:101BE000130504C0EF00F050130181026FE0EFCB4A
:101BF000EFE20FCB37340140130504C08145EF00FD
:101C0000D03B0146130504C08545EF00F03D8564D7
:101C1000138504808545EF0070011385048081459C
:101C2000EF00D0008545130504C0EF00904C6FE035
:101C3000CFC7EFE2EFC601112A84AE840545854582
:101C4000EF00E07C2800EF00F0352C003705004065
:101C50006484608623170100231501002308010016
:101C6000EF003016814601468D4537050040EF00F4
:101C7000D038914705443ECA4C08A9473705004073
:101C8000FC8622CCEF003043854537050040EF004D
:101C900090480546854537050040EF00F03493072E
:101CA00060020A857C8022C223010100A1238145B4
:101CB00037050040EF00F03C854537050040EF0058
:101CC000D02F05616FE06FBEEFE28FBD8145370514
:101CD0000040EF00902E0146854537050040EF009B
:101CE000B03085450545EF00407681450545EF005C
:101CF000C075854537050040EF00F0418545370543
:101D00000040EF00103F6FE04FBAEFE26FB92A8456
:101D100015657111130555552EC059291375F40F0A
:101D2000612982452E8569294521752111016FE0C0
:101D3000CFB7EFE2EFB6130510063D276DDD39454D
:101D4000312B65451D23054501236FE00FB601A02A
:101D500097F1FF1F938181B4138181F6171500005D
:101D60001305C55097E5FF1F9385C52917E6FF1F8B
:101D70001306C63263FAC5008322050023A055006E
:101D800011059105E3EAC5FE17E5FF1F13050531AF
:101D9000938581996377B500232005001105E36DD4
:101DA000B5FEB722000093820288739002308D4204
:101DB0007390428097E2FFFF9382C22493E2320045
:101DC00073905230EFF01FBF97020000938242B52C
:101DD0007390123473002030B72701409387074077
:101DE000631EF500EFE2CFAB8545130500203D2DC6
:101DF0008145130500201D2D6FE02FAB82805C41D3
:101E00003707F1FF1307F7EF7D8FDC419441A207FD
:101E1000D58FD98F5CC11C4537F7F1FF1307D77FEA
:101E2000D4457D8F9C49D58F94458606D58FD98F13
:101E30001CC55C55370710FF7D177D8FDC29FD170A
:101E400093F7F70FD207D98F5CD582801C4589C5DF
:101E500093E717001CC58280F99BEDBF1C4589C51F
:101E600093E707101CC5828093F7F7EFE5BF1C4589
:101E700093E787001CC5828008450D810589828013
:101E80001C4593E747001CC58280084509810589E8
:101E900082801C4591C537075000D98F1CC58280B0
:101EA0003707B0FF7D17F98FD5BFA54763F8B70493
:101EB000138765FF931717008322C500BA971D4348
:101EC0003313F3001343F3FF33735300B397F60058
:101ED000B3E767005CC5994763E3C7047D169317B2
:101EE00026003E965859FD47B397C70093C7F7FFA2
:101EF000F98FB395C500DD8D4CD98280939715007D
:101F000003230501AE971D473317F7001347F7FF6B
:101F100033776700B397F6005D8F18C96DBFB1477F
:101F200063E2C7026516931726003E961859FD47CF
:101F3000B397C70093C7F7FFF98FB395C500DD8D41
:101F40000CD982804D161317260054553A96FD473A
:101F5000B397C70093C7F7FFF58FB395C500DD8D25
:101F60004CD582805C41370700FA7D17F98F5CC140
:101F70005C41DD8D4CC182801C4141677917F98F2E
:101F80001CC1232005002322050023240500B707D8
:101F9000024023260500138787006317E500D84316
:101FA0001367F700D8C382801387C7016316E50063
:101FB000D8431367070FFDB7138707036318E500BE
:101FC000D8438566938606F0558FE9BF138747048B
:101FD0006315E500D843BD66C5BF13878705631643
:101FE000E500D843B7060F00C5B71387C7066316C9
:101FF000E500D843B706F000C1BF13870708E31414
:10200000E5FAD843B706000FC1B71841E177BD071D
:1020100094517D8F9C45D58F9449D58FD449D58FC8
:10202000944DD58FD44DD58FD451D58F9455D58F10
:10203000D98F1CC1DC455CC19C411CC5DC415CC521
:1020400082801C4189C593E717001CC182804167CB
:102050007917F98FDDBF1C4101C6DD8D0CC182806F
:1020600093C5F5FFFD8DDDBFB70702409C437D8D15
:102070003335A0008280B7070240C8C38280EFE2F8
:102080002F82DD376FE06F82B7070240C8C38280BE
:102090005841032305004C4537060140930706408D
:1020A0003E979346F3FFB1C583250640F58D232067
:1020B000B640D043F18ED4C31443B3E6660014C3D4
:1020C000184190479346F7FF758E90C7D047F18E21
:1020D000D4C7144541466399C6009447D98E94C726
:1020E000D447558FD8C78280B6979443558F98C3ED
:1020F00082801C43F58F1CC38280B7070140138781
:10210000074083A70740584B698F09C77D8D33353A
:10211000A000828001458280B707014023AAA74022
:102120008280944593F7060193F2F60081C7DC4163
:10213000B3E2F20083D3050093F7F30FA5C30323A3
:102140000500611122C226C0814713048002930456
:10215000800405473316F70033F7C3006312E60225
:10216000939527003D473317B7001347F7FF3373A5
:102170006700B395B20033E36500639D860050C9E4
:1021800085072147E397E7FC12442320650082443A
:1021900021018280E39696FE10C9DDB78280084552
:1021A0006D8D3335A00082800CC982804CC982803D
:1021B000B737004088C38280B7370040C8C38280E9
:1021C000B737004088C78280AD67373700409387B4
:1021D000A7AA1CC38280B567373700409387C7CC56
:1021E0001CC3371702405C53898BF5DF828023A81C
:1021F000A198828083A60199854718216390F602F1
:102200001C31639CD7023C219A0793E707F8B7E695
:1022100000E093F7F70FBA962380F6408546935770
:1022200057003397E600544189CE938707048A0705
:10223000B7E600E0B69798C38280EDF33C219A0799
:10224000F9B793870706E5B7377700401C4709C5FC
:1022500093E727001CC78280F59BEDBF37770040CE
:102260001C4BC19B5D8D08CB8280711102C03777FA
:1022700000405C4793F707FC3EC082475D8D2AC053
:1022800082475CC711018280B77700409843759BF5
:1022900098C398431367270098C3B7F700E003A7D4
:1022A00007D11367470023A8E7D005476311E5026C
:1022B00003A707D15D9B23A8E7D07300501037F721
:1022C00000E0832707D1ED9B2328F7D0828083A6E7
:1022D00007D103A707D193F606021367870223A845
:1022E000E7D003A707D11377F7FD558F23A8E7D0D1
:1022F00003A707D11367870023A8E7D07300501006
:1023000003A707D1136787007DB7371702401C4327
:102310000E0593F777F05D8D08C38280B7160240F3
:10232000DC4241771307F77FF98F5D8DC8C2828049
:10233000EFD21FD7371702405C4391462A84B18BF6
:102340006385D700A1466380D708B7376E019387AE
:1023500007601CC0B7160240DC42918313F7F700F8
:10236000B707002093874708BA978C23DC421840B0
:1023700093F5F50F93F707083355B70081E73A85D2
:10238000EFD05FD548C008C448C4B7170240DC434B
:102390008D46AD83FD8B13D737008A07F18BD98F1C
:1023A00013F6370113F7370063F4C600138747FFAE
:1023B000B707002093870707BA978C23EFD09FD1E8
:1023C00008C86FD09FCE5C43B777DC02938707C005
:1023D00049B799C5371702405C4B5D8D48CB828069
:1023E000B7170240D84B1345F5FF798DC8CB8280D3
:1023F00099C5371702401C4F5D8D08CF8280B717F3
:102400000240984F1345F5FF798D88CF828099C59A
:10241000371702405C4F5D8D48CF8280B71702406E
:10242000D84F1345F5FF798DC8CF828099C53717EE
:1024300002405C475D8D48C78280B7170240D8478D
:102440001345F5FF798DC8C7828099C537170240BB
:102450001C4B5D8D08CB8280B7170240984B13450B
:10246000F5FF798D88CB8280135755008547631916
:10247000F700B71702409C4333D5A7000589828037
:10248000B7170240DC53CDBF1A218D67938707042D
:10249000B6217D8F9E21D58FD621D58FF621D58F60
:1024A0009625D58FB625D58FD625D58FF625D58FF0
:1024B000D98F1EA19E291EA982801E2189C593E75E
:1024C00007041EA18280C207C18393F7F7FBC207EE
:1024D000C183C5BF5E2101C6DD8D4EA1828093C53B
:1024E000F5FFFD8DDDBF4EA582804A2582800A253D
:1024F0006D8D3335A00082801E319206C207C183E4
:10250000F99BC207C1831EB11A2D1E3103538501E9
:1025100042074183336366001377C7F0558E518FAE
:10252000B7360140C2074207231C6500938606C0E8
:10253000C18341836306D500B70600406319D50007
:10254000F59BCD8F93E717001AAD1EB18280D59B06
:10255000CDBF1E3122064206C207C183BD9BC20702
:10256000C1831EB10353850185679387F7CF1A3165
:10257000B3F76700035385014182B20633636600F7
:10258000558ED18FB73601404207C207231C650024
:10259000938606C04183C1836306D500B706004019
:1025A000631DD50092051377F7FDD98DC205C18152
:1025B00093E505011EAD0EB182801377F7F5D98D35
:1025C000C5BF1E2137370140130707C0C207C183AB
:1025D0006306E500370700406316E500BA2193F76C
:1025E000F7F8D98FFA2193F7F7CFC207C183D98FB4
:1025F0001EA1DE215EB59E211EB5B737014093872F
:1026000007C06314F5009C251EB985475EA982802A
:102610001E31922103D32500C207C183F99BC20753
:10262000C1831EB11E3156211A2DC207C183420734
:1026300041831377C7F8518F9225F59BC206336605
:102640006600D18F37360140130606C0C182631081
:10265000C502B225DD9B03D3E500D18FD221ED9BCE
:1026600093F6F6CFD18FD22533666600D18E56A170
:102670001AADFA2158D91EB182801E316577130731
:10268000F7CFC207C183BD9BC207C1831EB11E31F4
:10269000562103D38500C20713960601162DC18368
:1026A00093F7F7FD758F96214182A206558FB621CB
:1026B00042074183B3E666009206D58FB7360140E4
:1026C000C207938606C0C183631ED502B62593F761
:1026D000F7F703D3C5009206D58FD621C207C18371
:1026E000920693F7F7FBD58FFD769386F63FF18E32
:1026F000F225C207C183336666000A06D18E13969F
:102700000601418252A11AADFA2118DD1EB1828064
:102710001E31922103D38500C207C18393F7F7EFDF
:10272000C207C1831EB11E3156215A2DC207C18373
:10273000420741831377C7F8518FB22193F7F7DF30
:10274000C206336666002206D18F13960701B7379B
:102750000140938707C0C1824182631FF502FD7764
:102760009387F77FF18FB22503D3C5002206D18F5F
:10277000D221C207C183220693F7F7BFD18F1396E8
:102780000701F577FD17FD8EFE254182B3E767004F
:102790009207DD8EC206C182FE2156A15AAD5CDDD4
:1027A00012B18280FD575EA123100500231305009E
:1027B000231105002304050082801E2189C593E7AB
:1027C00017001EA18280C207C183F99BC207C18383
:1027D000CDBF8357450491C52167D98F2312F504D6
:1027E0008280C607C583DDBF5E2501C6DD8D4EA58F
:1027F000828093C5F5FFFD8DDDBF035385001A2D43
:102800001E31420313530301C2074207C1839206DC
:102810004183137383FF93F7D7FD558EB365B300E0
:102820001377C7CFD18F0EA513671710C207C183C7
:102830001AAD1EB182801E2189C593E707081EA12B
:102840008280C207C18393F7F7F7C207C183C5BF70
:102850001E2DC207C183DD9BDD8D0EAD82801A2D3A
:10286000FD779387F77FF98FA205CD8FC207C183CC
:102870001EAD82805E2DC207C183DD9BDD8D4EAD16
:1028800082804EB182801E2DC207C183CD9BC207BC
:10289000C1831EAD1E2DDD8D0EAD82801A2DFD77FC
:1028A0009387F73FF98F1EAD1E2DA205DD8DC20562
:1028B000C1810EAD8280EFD2AFFE9E21AA842E840C
:1028C00081EF9625D221AE21EFF01FC36E20268521
:1028D000EFF07FFB6FD06FFD1147E39DE7FE96257C
:1028E000D221AE21EFF0FFC66E202685EFF01FFB50
:1028F000D5B793C5F5FFC205C1810EA982801E29F7
:102900004A25ED8F4205418189C76D8D3335A00081
:1029100082800145828093C5F5FFC205C1810EA961
:102920008280B747014093870780631EF500EFD28E
:102930002FF785451165EFF07FAF81451165EFF009
:10294000FFAE6FD08FF68280EFD28FF51629F57724
:10295000FD17F58FF621DA252111D58F1EA95625F1
:10296000FD779387379FF58FD6212A842EC0D58F88
:102970009625D58FB625D58F5EA55E29C207C18362
:1029800093F7F7CF5D8F5AA94800EFF07F9AB747CA
:1029900001409387078082456312F406C2475A2498
:1029A000139517003E9542070E0541873E958C41D1
:1029B000635807048605EFD0EFF1930540062AC05F
:1029C000EFD04FF1824793144500930540063E85B2
:1029D000EFD00FF35E24C207C18763D507020E054F
:1029E0009305400613052503EFD0CFEE1D89C98C52
:1029F000C204C18006A461016FD02FEBB24745B776
:102A00008A0555BF12059305400613052503EFD02F
:102A10006FEC3D89E9BF91C55E250967D98F5EA539
:102A200082805A25F977FD17F98FD5BFEFD24FE78E
:102A300051116C808D478A8532C43EC2231101003A
:102A4000EFF02FEE31016FD04FE6EFD26FE5854505
:102A500013054003EFF0DF99854537050010371463
:102A60000140EFF0DF9A1305048001468945EFF03D
:102A7000FFFB1305048061469145EFF03FFB4146A3
:102A8000854537150140EFF07FFA1306800489452C
:102A900037150140EFF09FF9414691453715014048
:102AA000EFF0DFF86146A14537150140EFF01FF860
:102AB0004146C14537150140EFF05FF76146930588
:102AC000000237150140EFF07FF6614693050004E0
:102AD00037150140EFF09FF5130504406146854529
:102AE000EFF0DFF413050440130680049145EFF086
:102AF000FFF31305044013068004A145EFF01FF314
:102B00001305044013068004C145EFF03FF261460F
:102B10001305044093050002EFF05FF1C14537153E
:102B20000140EFF06FE86FD04FD8EFD26FD7B70703
:102B3000002003A5C706B7157A0093850520EFD0BE
:102B40006FD91375F50F238BA19893175500898FB3
:102B50008A073E950E05239AA1986FD00FD5EFD224
:102B60002FD437F400E05C40AA85F99B5CC003D504
:102B70004199EFD02FD408C8232404001C4093E7C8
:102B800017001CC0B7F700E0D843058B75DF9843EA
:102B9000799B98C36FD06FD1EFD28FD02A84116503
:102BA0001111854513050502EFF09F84930700027C
:102BB0007C80371501408D473EC28A85E147130569
:102BC00005403EC4EFF0EFD522C637440140B707B9
:102BD00008006C00130504803ECA02C8231C0100D3
:102BE000EFF09FD6854513050480EFF0DFE2710119
:102BF0006FD0AFCBEFD2CFCA3111AA84AE860143DA
:102C000063550500B304A0400543014713041700B2
:102C1000B3878600A945268532C81AC63AC436C28B
:102C20003EC0EFD02FD0824713050503A945A38FDF
:102C3000A7FE2685EFD08FC9A54292462247324390
:102C4000424663CE92026308030013042700024742
:102C50009307D0021CA3A287930500033387F600D5
:102C600063C2C70213D6F701B29723000700858716
:102C700001467D17634BF60051016FD00FC32287C9
:102C8000AA8469B70CA38507D1BFB385C600030327
:102C900007000385050005062380650008A3D1BF52
:102CA000AA87850703C7F7FF6DFF3385A7407D150A
:102CB0008280000080808080808080808080808012
:102CC00000000038443C44443E00000000C040582E
:102CD00064444444F80000000000003C4440404488
:102CE00038000000000C04344C4444443E00000012
:102CF00000000038447C40403C000000001C207C68
:102D0000202020207C000000000000364C44444479
:102D10003C04380000C0405864444444EE000000C5
:102D200000100070101010107C00000000100078DF
:102D3000080808080808700000C0405C4870504847
:102D4000DC00000000301010101010107C0000009B
:102D5000000000E854545454FE000000000000D865
:102D600064444444EE0000000000003844444444FD
:102D700038000000000000D8644444447840E0007B
:102D8000000000364C4444443C040E000000006C3B
:102D9000302020207C0000000000003C4438044427
:102DA000780000000000207C202020221C00000071
:102DB000000000CC4444444C36000000000000EE0B
:102DC0004444282810000000000000EE44545454ED
:102DD00028000000000000CC48303048CC00000043
:102DE000000000EE44242818101078000000007C39
:102DF000481020447C00000000000E001B003180C1
:102E0000318031803180318031801B000E00000024
:102E10000000000000000000000006003E00060068
:102E20000600060006000600060006003FC000007F
:102E3000000000000000000000000F001980318039
:102E40003180030006000C00180030003F800000B5
:102E5000000000000000000000003F0061800180D1
:102E600003001F0003800180018061803F0000009B
:102E700000000000000000000000070007000F0035
:102E80000B001B00130033003F8003000F80000085
:102E9000000000000000000000001F801800180063
:102EA00018001F0011800180018021801F00000098
:102EB0000000000000000000000007801C00180057
:102EC0003000370039803180318019800F000000D8
:102ED000000000000000000000007F00430003002D
:102EE00006000600060006000C000C000C000000A6
:102EF000000000000000000000001F003180318051
:102F000031801F0031803180318031801F0000000E
:102F1000000000000000000000001E0033003180AF
:102F2000318033801D800180030007003C000000D9
:102F30000000000000000000000018002400240031
:102F400018C007801E00318002400240018000004E
:102F50000000000000000000000000000000000071
:102F60000C000C000000000000000C000C00000031
:102F70000000000000000000000000000000000051
:102F80000000000000000000000000000000000041
:102F900000000000000000000000003FFF004000B3
:102FA000804000804000804000E04000E040008021
:102FB0004000804000803FFF0000000038070040D4
:102FC00080804080804100804100E04020E040203F
:102FD000804000804040803C07000000000000006E
:102FE000000000001F00018001801F8031803380BD
:102FF0001DC0000000000000000000000000700084
:10300000300030003700398030C030C030C03980E7
:103010007700000000000000000000000000000039
:10302000000000001F00318060C07FC0600030C021
:103030001F8000000000000000000000000007E00A
:103040000C000C003F800C000C000C000C000C006D
:103050003F800000000000000000000000000000B1
:10306000000000001DC0338061806180618033807A
:103070001D80018001801F00000000000000700022
:10308000300030003700398031803180318031802C
:103090007BC00000000000000000000000000600EF
:1030A000060000001E0006000600060006000600DE
:1030B0003FC00000000000000000000000007000A1
:1030C00030003000378036003C003C0036003300D2
:1030D00077C00000000000000000000000001E009B
:1030E00006000600060006000600060006000600B0
:1030F0003FC00000000000000000000000000000D1
:10310000000000001F00318060C060C060C03180DE
:103110001F00000000000000000000000000000090
:10312000000000007700398030C030C030C03980E6
:103130003700300030007C0000000000000000007C
:10314000000000001DC03380618061806180338099
:103150001D800180018007C0000000000000000009
:10316000000000007B801CC0180018001800180028
:103170007F000000000000000000000000000000D0
:10318000000000001F8031803C001F000380318060
:103190003F000000000000000000000000001800D8
:1031A000180018007F001800180018001800188078
:1031B0000F00000000000000000000000000000000
:1031C00000000000F1E060C064C06EC03B803B8046
:1031D00031800000000000000000000061626566B0
:1031E0006768696B6C6F707172737477FF07E007C3
:1031F000E0FF0000CEFCD1CCBBFA0000B1B3B9E2D5
:1032000000000000B7E7C9C800000000D5D5C3F72B
:1032100000000000B0C0B22FB303B619B701ACCBA9
:10322000AB0EB404A8193A05B808E824E948EA2224
:10323000C630C718F01F28043E2A2E20000C0600B6
:103240001C1F0FF1002D2F3C6F1C0B000000070D01
:10325000110F2111290000000019324B64000000F9
:083260003C3C00003C000000B2
:10326800B42C000001000800982F000014000B0087
:10327800DC2F00000B001000F82D00000B001000E0
:1032880032500101FC3100003C2C014000000000DC
:103298000432000020000020000000000C32000072
:1032A8002100002000000000650000000000000070
:1032B80000000000000000000100000001020304FB
:1032C800050607080102030405060708006CDC026E
:1032D8000204060804080C100810182010203040BA
:1032E8002040608001020304050607080102030468
:0832F8000506070800000000B4
:00000001FF
