:100000006F20A03300000000321C0000341C0000F0
:1000100000000000000000000000000000000000E0
:1000200000000000000000000000000000000000D0
:10003000382300000000000038230000000000000A
:100040003823000038230000382300003823000044
:10005000301D0000D61E0000E01B00003823000009
:10006000C41B0000382300003823000038230000A0
:100070003823000038230000382300003823000014
:10008000382300003823000038230000301E000011
:100090003823000038230000721B0000000000001D
:1000A000511126C022C206C4828282441244A24058
:1000B000310182802A86014593F6150091C232955E
:1000C00085810606F5F9828000000000634E050276
:1000D00063C305042E86AA857D5515C285466378BF
:1000E000B6006356C00006068606E36CB6FE014500
:1000F00063E4C500918D558D85820582F5FA828075
:100100008682C93F2E8582823305A04063D70500D1
:10011000B305B040C1B7B305B0408682653F330533
:10012000A0408282868263C70500634905005D376F
:100130002E858282B305B040E35B05FE3305A04007
:10014000513F3305B040828200003D432A876373EC
:10015000C3029377F700BDEFADE5937606FF3D8AC6
:10016000BA960CC34CC30CC74CC74107E36BD7FE10
:1001700011E28280B306C3408A0697020000969679
:100180006780A6002307B700A306B7002306B700C1
:10019000A305B7002305B700A304B7002304B700E5
:1001A000A303B7002303B700A302B7002302B700DD
:1001B000A301B7002301B700A300B7002300B700D5
:1001C000828093F5F50F93968500D58D9396050162
:1001D000D58D61B793962700970200009696868288
:1001E000E78086FA9680C1171D8F3E96E374C3F8A8
:1001F000A5B7370700209307870E8AA7AEA7D6A713
:10020000AAABCEABF2A7239807001307870E09C647
:100210009306400B6315D6004AA36EA38280CEA33B
:10022000EAA38280B70700209387870EFA279306F8
:10023000A00542074183630FD70063E4E60015C3BE
:1002400082809306400B6303D7029306E010630C91
:10025000D70282809E27FD178D8FAA8513950701EF
:100260004181EFF2FFE3EF10803881B59A27BE2776
:100270007D173305A740FD174205B385B74041817F
:10028000C205C181F9BFBE27FD17898F2E859395C1
:100290000701C5BFEFF2DFE013971600C206C18267
:1002A00093041500958CC204B28221112E837D1710
:1002B000C18001466370E60813041300158C4206E2
:1002C000420441824180814732C091A813950401C4
:1002D000418563400504131604014186634B060201
:1002E000B70500209385850E83D3450063537502BF
:1002F000EE216350B6021686A28526851ACA36C834
:100300003EC63AC416C2393F5243C246B24722479C
:10031000924285070504C2074204C1874180E3E792
:10032000E7FA82478504C204138617004206C1809B
:10033000418649B7610195BBEFF29FD6130181FD5C
:100340003ECEB307A6403ACC13D7F741B98F998F69
:10035000E207E1873387B6403EC49357F7413D8FAC
:10036000998FE207E1873EC6854732C036C23EC854
:10037000AA822E846364C500FD573EC885473ECAE5
:1003800092476364F400FD573ECA3247A2470246D3
:10039000B384E700238E5180A38E8180370700202D
:1003A0001307870023ACE18092461685A28516D0FC
:1003B000EF00B07382520147D25705078546137785
:1003C000F70F639CD7003A858D4516D23AD00D3B86
:1003D0001375F50F0257925211C9F24662461685FF
:1003E000A2853AD216D07D3512578252B2479396E3
:1003F000140063CFF60082476380F204B247A697E9
:1004000093940701C247C184BE92C20293D20201F3
:10041000A24793961400E3C1D7FA9247630EF40003
:10042000A247A69793940701D247C1843303F400EF
:1004300013140301418049B713151700EF10000A88
:10044000130181029DB1EFF2BFC5311136C682564C
:100450002AC232C43AC82E84BE84B1EAAE8602C033
:10046000E13D12464247B246A687A285328502C0C8
:10047000E13522464247B246A687A285328502C0B0
:10048000653DB24642472246124502C0A687B68560
:1004900065350DA0424722461245A286A28502C0BC
:1004A000A687593D13031400131403014180B2477A
:1004B000E3F287FE5101D5BEEFF29FBE01113AC2B1
:1004C000370700202AC03EC613078701AE84368452
:1004D000639CE60A91678145938747DDC146338572
:1004E000F5000821630FC5128505E39AD5FE014585
:1004F000B70700209387870EDA2382466364D70804
:10050000FE2363E197081C4072204E20AA97238E99
:10051000D1803EC4B6879386F4FFB2961386F7FF68
:100520002E96C2064206A38E9180C1823E854182EC
:10053000A68523AC8180EF00505B938781813EC804
:10054000A247A6863387964072204207418363689C
:10055000C70CC2479C43EE23CA23A93E13141500BF
:100560009307F04763C587002285EF003077930536
:1005700000482285453E19C59307004863D487008B
:10058000EF00D075056115B60305C102EE223305F3
:10059000A6400D364E209D058D81293E91BF1376D4
:1005A00077009375770032C4130600083356B640BF
:1005B0008C236D8E29C23ECE82473246B6853305E6
:1005C000F700420541813ACC36CAA939D246624782
:1005D000F247A2451D466393C500850705074207FC
:1005E00041835220E36DC7FA1D8A11C28507850633
:1005F000C206C18281BF924541667D16E38BC5FC70
:100600003ECE82472E86B6853305F70042054181EE
:100610003ACC36CA0139F2476247D2465DBF01473C
:10062000C9B75E236A239D078D873EC46134A24704
:10063000AA853E859DB7EFF2BFA6130181FD3EC698
:1006400083074103AA832EC23EC88357810332C465
:10065000B6823ACA3ECC2E842A83B2840386040032
:1006600001E61301810291B4B70600209387860E3C
:1006700003D74200CE239386860E1A9783D7620053
:100680006346B7003E94420441801E83FA22B306BB
:10069000F4006354D70012441E8331476392E70489
:1006A000A2476247B387F440C207C183631AF702C7
:1006B000C247416796863EC0B2471A851307078036
:1006C000A2851ED216D01ACEC53B724382529253D7
:1006D00083D7420085043E93420313530301BDBFF9
:1006E000C247524796863EC0B2471A85A2851ED29F
:1006F00016D01ACED133925382527243D1BFEFF249
:100700003F9A31118545056502C002C202C402C686
:1007100023180100EF20402FB70704013EC0B707A0
:1007200000023EC4A1473EC68A859D473735014039
:10073000FC8002C2EF20C036854537350140EF20EE
:10074000403951019DB2EFF2BF951301C1FB2A84DC
:100750002EC6B28481451306C002280836C43AC2A8
:100760003EC0E53285450545EF2020282285EF1063
:10077000505F82473243A246124741463ED62C087C
:100780008D6722851ACC36D23ADC3EDE26CE32D0B8
:1007900002D402D802DA82C0EF10D065054689453E
:1007A0002285EF10F069E147FC80080885473ECAC2
:1007B00023090100EF208005130141046FF0FF8E33
:1007C000EFF21F8E37140140AA84130404408545BC
:1007D0002285EF10307C65DD0144894537350140C5
:1007E000EF2060321DC1A68537350140EF20203152
:1007F000854537350140EF20003115C137350140BF
:10080000EF2020301375F50F09A805041374F40FB9
:100810009307900CE313F4FC01456FF01F89050466
:100820001374F40F9307900CE314F4FCF5B7EFF294
:100830003F8783C7D1D909476317F7009387818220
:100840009823050798A383C7D1D90947631BF702EB
:100850009387818294231307800C6374D7021385D6
:10086000C1D023800700EF20B0799375F50F138571
:10087000C1D0EF20502001E58547A38EF1D8EF20AD
:10088000101283C7D1D905476314F700A38E01D88E
:100890006FF0BF81EFF2DF805111B70400202A848E
:1008A000793703A684098947938484096317F60A74
:1008B00003A701CFBE866312C704B7060020054612
:1008C0002385C60423800182130610098145138500
:1008D000C1D03AC0A38F0180EFF03F87938701CF4B
:1008E000024723820700E9562384D182238604002D
:1008F000A38EE1D831016FF04FFB8547631FF704EA
:10090000B70700202385E7049387F18198237D179B
:100910006207618798A36354070213870182030665
:1009200007006359C00242207D1610A3A28513055B
:100930000008EFF0AFF9018D9387F18188A3695723
:10094000938601CF2384E18223820600238604005C
:10095000094779BF23800700DDB7DC40054763976F
:10096000E70A370700202305F7048387C1D02AC28E
:10097000D1D39387F18188234620050562056185DF
:1009800088A3A6850505EFF0EFF21387F1819306A2
:10099000E0073AC09387018263D6A6020385070069
:1009A0006E202300070005056205618588A3050503
:1009B000EFF04FF01307A006938701826354A7005E
:1009C0002380070083870700238F0180A6851305F6
:1009D00000083EC4EFF08FEFA247AA853E85EFF0F6
:1009E0006FED8247838707003E9592479387C1D07A
:1009F0003E9583070500E39F07EE9307100609471E
:100A00001CA1A38EE1D869572384E18203A701CFFB
:100A100085476317F7049387E18103850700ED4558
:100A20000505EFF02FF09387E18188A3AA84094799
:100A30004E20A38EE1D869572384E1821305000874
:100A4000EFF0CFE88385018293841406EFF08FE600
:100A50008387F181AA971385C1D0AA9784A359BD32
:100A60008947E319F7E89387E18103850700ED459E
:100A70003AC06905EFF00FEB9387E18188A3AA8460
:100A800002477DB703C7D1D98D46639CE604EFF2D8
:100A90002FE1A38E01D8B707002003C4570E4E21C3
:100AA0008546370700202305D7041305E007EFF03C
:100AB000EFE11374F40FAA84AA852285EFF00FE109
:100AC000B707002003C4570EAA852380A18226857C
:100AD000EFF04FDE7D143305A440A38FA1806FF0AB
:100AE000CFDC8280EFF2CFDBC1673707002013072E
:100AF000870461112A849386F7FF01468D4513050B
:100B00001006B7040020EF00F0639384A40498203B
:100B100039C7C167B7060020FD17014793868602D3
:100B200001468545054502C0EFF01F99056713078B
:100B300017849306A0071306F007D1450145EF007F
:100B40007002854702C01307007E9306A0071306B4
:100B5000F007D1450145EFF01F8F238004004E20A0
:100B600013050008EFF08FD6AA8503850182EFF008
:100B70006FD48387F18101473E95420593071006A4
:100B80003EC04181C167FD17A2861386C1D0D545FD
:100B90002AC205454D342285F5352285E5392101E6
:100BA0006FF0AFD0EFF2CFCF37070020C1666111F1
:100BB000AA8413078704FD1601468D451305100608
:100BC00037040020EF0010581304A4041C209DCB10
:100BD0000567130717849306A00713060008D1457D
:100BE0000145EF002078B706002002C0FD4713073B
:100BF000007E93868602014681450145EFF0DF8B3A
:100C0000230004009307703E3EC2930710063EC0C7
:100C1000C167FD170147A6861386C1D0D545054596
:100C2000EFF07FA12685B93D21016FF00FC81C416F
:100C300063D3B7000CC11C416353F60010C182801E
:100C4000EFF20FC661112AC2480036C0CD37824686
:100C5000124793971600B697B70600208A07938627
:100C6000C604BE96DC4298A321016FF00FC4EFF2D8
:100C70002FC383C711823704002015479384118244
:100C80001304C4046363F70211678A07130747E07C
:100C9000BA979C4382879307400663D3A702130544
:100CA0004006B737014023AEA7C29820931717001C
:100CB000BA978A073E941C4491C382976FF0EFBEA7
:100CC000E35105FE0145F1BF18481C2393B71700F7
:100CD0001CA3E1BF89462D4685459D37F9B78D4652
:100CE0005146AD45DDBF914625468145FDB7954648
:100CF00031469D45DDB7EFF2AFBA011132C4AA8289
:100D0000AE839304007E99E1C164FD141394320014
:100D10001694060493170401C1833EC8D907C2077D
:100D2000C1833EC6939712003703002096971304A1
:100D3000C3048A073E949307703E3EC29307100691
:100D40003EC0A2461040B2450147A68701451ECCD1
:100D500016CAEFF05F8E0840EF20902AA247AA85BE
:100D6000CA23EFF02FB5B245B70600204205A6878B
:100D700002C00147938606022D464181EFF0CFF372
:100D8000D2423703002085471303C304E243639F25
:100D9000F212B70700209387970463940300982307
:100DA0005DC323800700A2470325C300C623C247B3
:100DB00013848701832703014204418098238547D8
:100DC0006316F708EF20D023930515002685EFF072
:100DD0006FAEB2459303703E93020003B744000028
:100DE000B706002042051EC216C0014793860603BF
:100DF0001386C4E19307007E4181EFF0DF83B707DC
:100E000000201383C7040325C300EF20701FA247EF
:100E100093051500CA23EFF0EFA99303703E9302E8
:100E20000003C167B70600203D051EC216C0FD17AE
:100E30001307007E938686031386C4E1A2854205CC
:100E40004181EFF04FFF05616FF02FA6EF20501B9F
:100E5000930515002685EFF0EFA5B2459303703E8C
:100E6000B7420000C16493070003B70600204205A3
:100E70001386C2E11EC29386060301473EC041812C
:100E800093870480EFF02FFBB70700201383C7047C
:100E90000325C300EF20D0162247930515004A23EF
:100EA000EFF04FA1930700039303703EB7060020B5
:100EB000B74200003EC009051EC29387F4FF1387A6
:100EC0000480938686031386C2E18DBF5C400D4685
:100ED0006C088823EF20E07A0840EF207012A247C8
:100EE00093051500CA23EFF0EF9C9307703E3EC2B6
:100EF000B7060020930700033EC00147A6879386EC
:100F000006027008B24525BFB707002003C7A70433
:100F10000DCBEFF2EF98AA84014483C5118222859C
:100F20002686818D93B51500F933B7070020050497
:100F300019479387A704E312E4FE238007006FF0AC
:100F4000CF968280EFF2CF9503A401CF8544631B37
:100F5000940403C7118293171700BA9713972700B9
:100F6000B70700209387C704BA97DC438823050599
:100F7000FD39B707002023858704B707002083A425
:100F8000C7098547639EF4001384118208209945A0
:100F90000505EFF02F99B707002008A023859704D7
:100FA0006FF0AF908947E31AF4FC03C711829317DF
:100FB0001700BA9713972700B70700209387C70435
:100FC000BA97DC4388237D155D31B7070020238560
:100FD000970465B7EFF2CF8C61119307703E3EC264
:100FE000930700033EC0B7060020C16737460000E4
:100FF0002A84FD17014793860604130606E48145FB
:1010000013050003EFF02FE32285FD3D253F21016D
:101010006FF0AF89EFF2CF88138741821C4337040A
:1010200000208546711193844182130484096382F0
:10103000D70499C78D466388D70A232007001DA0CF
:101040003705002013050500EFF0DFA95040894760
:101050001387418285466317F600B7070020238572
:10106000D70414C32322040023A801CE11016FF07A
:10107000CF8337050020130505003EC0EFF09FB277
:101080000323440082476316F302B7070020014799
:101090009306F0071306F007814501452385670491
:1010A0001AC0C9240243B7070020A38467048D47F0
:1010B0009CC058408947E317F7FA85473707002057
:1010C0002305F7049306F00701471306F00781454F
:1010D00001453EC0412C82473707002023A0040071
:1010E0002304F70441B73705002013058501DD35DA
:1010F000C9B7EFE2FFFA2A84914537150140EF1096
:10110000006AC14537150140EF10A0692285EFF054
:101110002FEBC14537150140EF1060686FE0FFF815
:10112000EFE21FF82A84914537150140EF10606700
:10113000C14537150140EF10C0662285EFF04FE83A
:10114000C14537150140EF1080656FE01FF6EFE2F3
:101150003FF54145F1371545EF2040496FE0FFF479
:10116000EFE21FF4ED37373501408145130505C027
:10117000EF10B03737050240814513050503EF1026
:10118000E04AB7E700E03707000123A0E71801466F
:10119000894537350140EF107015814537350140DD
:1011A000EF10301381450565EF10100601456FE023
:1011B000DFEFEFE2FFEE4545A53713058007EF208F
:1011C000E0426FE09FEEEFE2BFEDEFF04FD3373537
:1011D00001408545130505C0EF10303105468945AE
:1011E00037350140EF109010370502408545130553
:1011F0000503EF10A043B7E700E03707000123A085
:10120000E710453F01456FE05FEAEFE27FE9371401
:1012100001406111AA849305000813050440EF10F2
:1012200040585145EF20803C9305000813050440C9
:10123000EF10E0565145EF20603B37078000938761
:10124000C1821307070898C313056003C4A3C93DEF
:101250001305800C793D01479164930700041374D2
:10126000F70F63D5E70021016FE03FE41386C4E682
:10127000329705049377F40F002393968701E18654
:10128000228536C03EC2693D9375740F1306100265
:101290001387C4E682466388C50245466305C402D7
:1012A00041041374F40F85453946924763F3850072
:1012B00005463384C7001316840161866397C60010
:1012C00093168401E186368749BF93871600BA9644
:1012D0008822E207E18732C23EC0213D82471246A2
:1012E000BE8691671387C7E6D1BFEFE27FDB850536
:1012F00023890182A38901829397050161118506E3
:10130000C1833EC00905939706010906C183931462
:1013100005011305A002131406013EC2C180093560
:1013200013D58400F93313F5F40FE13341801355DD
:101330008400C1331375F40F6D3B1305B002CD3338
:10134000824713D58700753308806533924713D5DC
:10135000870045330882713B1305C002D133210158
:101360006FE0BFD4EFE2DFD35111B71701402A84F9
:101370002EC0B28436C2938707403E8585453AC465
:10138000EF104041B717014093870740224775D5BA
:101390009246824526862285893F224781461355FB
:1013A0008700138641831377F70F13030048B38731
:1013B000C600E14588A398B3FD158907E5FD93862E
:1013C0000603E39666FE914537150140EF10203D78
:1013D000C14537150140EF10C03C37030240B73517
:1013E0000140930600489307000813070002130505
:1013F000030313864183B105EFF0EFB40546894539
:1014000037350140EF10806E3703024013050303A8
:101410008545EF10A02192470247B385844033856C
:10142000E740EFE03FC993050024EFE03FCA050520
:101430008147635FF504894537350140EF10A06CA3
:101440007DD937050240814513050503EF10001EC5
:101450000146894537350140EF10406913050020EA
:10146000EF104021C14537150140EF104033130400
:10147000900C854537350140EF10E0681DC13735C8
:101480000140EF1000681375F50F31016FE0FFC1E7
:1014900003C7C1CE1377F70F49DF238601CE850737
:1014A00049BF7D141374F40F69F40145F9BFEFE2ED
:1014B0003FBF0545993B0147930600081306000806
:1014C000814501454535C166FD1601469305000875
:1014D00013050008EFE0FFD16FE03FBDEFE25FBC16
:1014E000371401407111AA841304044085452285F4
:1014F000EF10402A65DD914537150140EF10202A95
:10150000C14537150140EF10C029014689453735DF
:101510000140238601CE37040240EF10205D130501
:1015200004038145EF10801093960401B735014004
:1015300013864183930700080147C1821305040302
:10154000B105EFF04FA00546894537350140EF1052
:10155000E059130504038545EF10400D9A87168462
:1015600003C7C1CE1377F70F65DF1305002023866D
:1015700001CEEF10E00E894537350140EF10A0583D
:101580007DD937050240814513050503EF10000A98
:101590000146894537350140EF10405513050020BD
:1015A000EF10400D9307900C8545373501403EC044
:1015B000EF106055824715C5C14537150140EF1042
:1015C000001E26869305F00F13854183EFE0FFB7D9
:1015D00037350140EF10E0521375F50F11016FE040
:1015E000DFACFD1793F7F70FE1F30145C5BFEFE25D
:1015F0003FAB2A8403C5D18183A781813385A54070
:101600007111CE2332C0EFE0FFAA83C7C18193845A
:10161000218302461D8C9C202A94060413952700E2
:101620003385A7401205229593874183AA971357C4
:10163000860098A390B39307E047631DF500130558
:101640000048693D9C20E1079CA093873183982343
:10165000610798A311016FE05FA583C781CB9386D3
:1016600081CB138641CB91EB1C4281EBB707004045
:10167000DE339CA283A781CE1CC2184283A781CEF1
:1016800088226317F700B7070040DE33630FF506C3
:10169000EFE21FA193171700BA978A07AA9703A52D
:1016A00081CE3707004003534702131715002A97CE
:1016B0000A071A976355F700054723A8E1CE03A34D
:1016C00081CE3707004083524702131713001A9741
:1016D0000A07169763D5E700894723A8F1CE83A7A9
:1016E00081CE1CC2B7070040DE339CA2938701CF96
:1016F000D82309E70547D8A323A801CE0145C12176
:101700000547A38FE1CE6FE05F9A82809307402860
:1017100063ECA7081307401A81476379A708EFE233
:101720003F989307C01D63FFA7049307D02263F17E
:10173000A7069307002663F3A7069305502813070F
:1017400010260D44198D4205418193171500998D7E
:10175000AA978E07C2053E95C181EFE03F9791673A
:10176000938707EBA2979C23130740063E95937738
:10177000F50F1375F50F6374A700930740063E85B8
:101780006FE0BF929305D01D1307501A01445DBF4F
:101790009305E0221307D01D05446DB7930510266D
:1017A0001307E022094479BF930740063E858280F3
:1017B000EFE21F8F37240140130504408145EF00FD
:1017C000F04BB7040240814513858400EF0010669A
:1017D00013858400EF00F058130504408145EF00A5
:1017E0009045814513050020EF1000226FE0FF8B2C
:1017F000EFE21F8B130141FC2A842EC2B284814583
:101800001306C002080836C0EFE03F948545054541
:10181000EF10A01D2285EF00D054924782460C089D
:101820003EC8930700083ED2930700103ED49307AA
:1018300000403ED6930700023ED822858D6736CE03
:101840003EDA26CA02CC02D002DCEF00B05A0546CE
:1018500089452285EF00D05ED9477C8428008547E2
:101860003EC623050100EF00707A1301C1036FE04B
:10187000DF83EFE2FF822111614681450A85EFE0B7
:10188000DF8C854513050020EF10001831653724E3
:101890000140EF10200A13050440EF009032854705
:1018A00037070E008A85130504403EC43AC6230A52
:1018B000F10002C002C202C8EF001033B7050002F7
:1018C00013050440EF00B048854513050440EF00C0
:1018D0009037854513050440EF00F03513050440AB
:1018E000EF009037930404402685EF0090376DFD9C
:1018F0001305044037240140EF00303793040440BF
:101900002685EF0030376DFDB7040240BD461386D3
:10191000C1CB9305C44413858400D93D138584004D
:101920008545EF00B0509D460546130504408545AA
:10193000EF005036854513050440EF003034610157
:101940006FE0AFF6EFE2CFF501112AC603D5C1CDA6
:101950003AC42E84B28436CAEFF05FDB93074006A8
:101960001383A1CD224763E2A70E2300A300834780
:101970000300B70600203EC4224683C7460993866B
:101980004609918F13D6F741B18F918F1546634465
:10199000F6001C23C5CBA2472300070022469CA2C9
:1019A000B70600209382060283D742001307300651
:1019B00013952700637EC7083247898F2245BA975F
:1019C000C207C1830D466C083EC8EF10904B9302CE
:1019D000007E9307703E3EC2930700033EC042451F
:1019E000D247370300209306030226877008A2859A
:1019F00016CCEFE05FC4D24732453703002026877C
:101A00009306030202C02946A285EFE0FFAA83A73E
:101A100041CE054737030020E242639DE70C1303E4
:101A2000030203554300B247B706002002C03E95AB
:101A3000420596872687938606010546A285418141
:101A4000EFE09FA705616FE04FE62300F30005B7C5
:101A500032473385A74022463A95420525474181C2
:101A6000636BC7049307703E3EC23746000093077E
:101A700000033EC02687A68793860602130686EBE0
:101A8000A285EFE05FBBB70700209382070283D7F0
:101A90004200324705466C08B307F740C207C183CE
:101AA0003EC81383A1CD03450300EF10903DC162F2
:101AB0009382028039BFAA97C207C1833EC89307A9
:101AC000703E3EC237460000930700033EC02687A3
:101AD000A687938606021306C6EBA285EFE0BFB584
:101AE0001383A1CD0345030009466C08EF1070393C
:101AF000FD42C5B5A1FB1303030203554300B247E2
:101B0000B706002026873E954205968793860601F4
:101B10000146A285418102C016C6EFE0FF99224529
:101B2000E5458144EFE00FDBB2421373F50F9303F9
:101B3000740093F7F40FE3F767F0139614002696FA
:101B4000130606074206930534009396030141826B
:101B5000C205168702C08547C182C18132851AC875
:101B600016C61EC4EFE04FFD85044243B242A243B5
:101B7000C9B7370700405E3371118545C207C1837D
:101B80007C805E3737050040C207C1837C81EF103F
:101B9000402619C9388134800583938781CE63FD3F
:101BA000E6009843050798C3854537050040EF10C8
:101BB000C02511017300203098437D17EDB723A095
:101BC000A1CE828013050020EF00102A01C905472D
:101BD000130500202386E1CEEF00D02973002030CA
:101BE0000945EF00702831C19387C1CB1387E70106
:101BF000014596238907369542054181E31BF7FE8F
:101C0000BD45EFE02FCD938741D09223420541811E
:101C10001387C1CDB306A6400AA3A506C94563E84C
:101C2000D50012A30945EF00F024730020308AA3E9
:101C3000D5BF01A001A0EFE2AFC621118545054542
:101C400002C402C602C802CA02C002C2EF00D05BD0
:101C500085450945EF00303599450D45EF00B03415
:101C600089450D45EF003034994705443EC42800AE
:101C7000C1473EC822CA02C6EF00502093070004A5
:101C80003EC42800A1473EC822CA02C6EF00101F6A
:101C9000930700203EC42800B1473EC822CA02C6AE
:101CA000EF00D01D9307501189440A857C80448140
:101CB00022C2EF00B035930740110A857C80448131
:101CC00022C2EF00B03461016FE02FBEEFE24FBDE2
:101CD000138421D023A001CE1C2093F7F70FB9C79E
:101CE000B707002003A5870BB7450F009385052490
:101CF000EFE04FBE9305F5FFC2055146C1811305C4
:101D000040062D2185452D45112BEFF0CFCBEFF06F
:101D10005FB6716513050520EF10F010B7070020BE
:101D200023AE070823A801CE230004006FE0EFB71D
:101D30007111114522C0EF00101B31C91145054436
:101D4000238081D0EF00101C371501409145130509
:101D50000540EF009023B7070020938787090547C8
:101D60001DC1B2270567130787BBD4276366C70069
:101D700099C60547D8C339A00947D8C381E623A22D
:101D80000700C0A70D4798C32395070081371305A7
:101D90000004EF00501501CD13050004EF0090166C
:101DA0008547238CF1CEA380F1D0EFF03FF20945B7
:101DB000EF00701315C10547894537150140238F82
:101DC000E1CEEF00901C1335150023A2A1CEEFF059
:101DD000FFEF0945EF00101302441101730020309A
:101DE000EFE20FAC1384D1CF1C2093F7F70F8DC314
:101DF000EF10002DEFF0CFB6EFF09F9BF92E552995
:101E00003745014013050580EF10E0002300040072
:101E10006FE0AFA983C721D093F7F70F89CBEFE22B
:101E20002FA87D3F0545EF00B0276FE00FA8828007
:101E3000711122C0373401408545130504C0EF00FD
:101E4000507B35CD8545130504C0EF00107C93878A
:101E500001CE9843B79604009386F63D050763C408
:101E6000E60698C337150140914513050540EF007C
:101E7000D01105E137070020130787093E27930695
:101E800010038507C207C1833EA763F4F6008947A4
:101E90001CC39386C1CF9C229DC31387A1CF1E2351
:101EA0001306301F8507C207C1831EA36379F6009E
:101EB00001452380060023100700EF10C06C024488
:101EC00011017300203023A0070085472381F1D042
:101ED000A38EF1CE41BF13050020EF00D00009C54D
:101EE00013050020EF00100273002030EFE24F9B3B
:101EF000938701D0942393F6F60F9384E1CF138454
:101F0000F1CF99EE938711D0942393F6F60F89EAD7
:101F1000942093F6F60F89E6142093F6F60F8DC6FB
:101F20000545EF104066138701D023000700938713
:101F300011D023800700054723800400238EE1CEC3
:101F400023000400239D01CE6FE02F96EFE24F9512
:101F5000852A0545EF00300B716513050520EF104C
:101F6000806CEF106065EF10605385452D457D2432
:101F7000B707002003A5870BB7450F0093850524FD
:101F8000EFE04F959305F5FFC2055146C18113055A
:101F90004006692AEFF02FA3EFF06FD1EFF07F8DAD
:101FA000EF10004AEFF03FC98565938505FA1945A2
:101FB0009126AD2683C721D093F7F70F91C7EF0085
:101FC0003002EFF03FE5FDB7EFF0CF84EFF01FF206
:101FD000EF104042EFF06FE8DDB7EFE26F8C37149F
:101FE00002401C403707FFF8414593E717001CC02B
:101FF0005C40F98F5CC01C403707F7FE7D17F98FF6
:102000001CC01C403707FCFF7D17F98F1CC05C40CB
:1020100041777D17F98F5CC0B7079F001CC4EF00A4
:1020200050101C4C93E707021CCCB717014003A7C4
:102030000740938607401377F7F023A0E74003A7F4
:1020400007401367070823A0E74089479CCAB7F7F2
:10205000FF1F03C5477D9307F00F6305F5007D89DA
:10206000EF00300CB72702409843C176FD16719BF4
:1020700098C398431367170098C3B7170240D84313
:10208000D8C3D843758FD8C3D843B7060001D8C387
:102090009843558F98C3984393166700E3DD06FE77
:1020A000D843B7160240719BD8C3D84313672700A3
:1020B000D8C32147DC42B18BE39EE7FE6FD0FFFE21
:1020C000EFD21FFE371702405C43370400209146D1
:1020D000B18B1304840B6385D700A1466382D704B8
:1020E000B7376E01938707601CC0B7160240DC4209
:1020F0000840918313F7F700B70700209387870AFA
:10210000BA978C23DC4293F5F50F93F70708335702
:10211000B50081E7EFD01FFC2A8718C06FD0FFF809
:102120005C43B777DC02938707C07DBFEFD25FF7D0
:10213000AA840565130181FD2E841305058085455C
:1021400032C002CC02CE02D002D202C602C8231A8A
:102150000100EF00700B6086373401406C001305FE
:1021600004C0E4802319010023170100EF00F026CA
:102170000246C167938707073ECC2C0889471305A1
:1021800004C02310F102F087EF00102A130504C0E9
:102190008145EF00703D130504C08545EF00303BDD
:1021A000130504C08545EF00D0320546854513056B
:1021B00004C0EF00F034930730027C82480085476A
:1021C0003EC42303010099258545130504C0EF0093
:1021D0009041130181026FD05FEDEFD27FEC373475
:1021E0000140130504C08145EF00B02E01461305E0
:1021F00004C08545EF00D030856413850480854593
:10220000EF005004138504808145EF00B00385453D
:10221000130504C0EF00303D6FD03FE9EFD25FE817
:1022200001112A84AE8405458545EF00C07F280052
:10223000EF00D0282C003705004064846086231707
:1022400001002315010023080100EF001019814649
:1022500001468D4537050040EF00B02B91470544FE
:102260003ECA4C08A94737050040FC8622CCEF0047
:10227000D033854537050040EF00303905468545A8
:1022800037050040EF00D027930760020A857C8065
:1022900022C2230101009D2B814537050040EF003C
:1022A000902D854537050040EF00B02205616FD0C5
:1022B000DFDFEFD2FFDE814537050040EF00702100
:1022C0000146854537050040EF00902385450545CB
:1022D000EF00207981450545EF00A0788545370559
:1022E0000040EF009032854537050040EF00B02FE9
:1022F0006FD0BFDBEFD2DFDA2A84156571111305C9
:1023000055552EC0D1211375F40FD92182452E8544
:10231000E121F921E92911016FD03FD9EFD25FD82E
:1023200013051006B12F6DDD3945A9236545912BA5
:1023300005453D236FD07FD701A097E1FF1F938113
:10234000E15A138181F117250000130525BA97E59D
:10235000FF1F938525CB17E6FF1F130626D963FAC7
:10236000C5008322050023A0550011059105E3EA6D
:10237000C5FE17E5FF1F130565D7938541DA63771F
:10238000B500232005001105E36DB5FEB72200005E
:1023900093820288739002308D427390428097E25C
:1023A000FFFF938222C693E2320073905230EFF027
:1023B000DFC2970200009382A2B9739012347300B7
:1023C0002030B727014093870740631EF500EFD206
:1023D0003FCD854513050020B52581451305002017
:1023E00095256FD09FCC82805C413707F1FF1307A2
:1023F000F7EF7D8FDC419441A207D58FD98F5CC167
:102400001C4537F7F1FF1307D77FD4457D8F9C49D3
:10241000D58F94458606D58FD98F1CC55C55370757
:1024200010FF7D177D8FDC29FD1793F7F70FD2077B
:10243000D98F5CD582801C4589C593E717001CC5E0
:102440008280F99BEDBF1C4589C593E707101CC529
:10245000828093F7F7EFE5BF1C4593E787001CC523
:10246000828008450D81058982801C4593E74700DD
:102470001CC5828008450981058982801C4591C55B
:1024800037075000D98F1CC582803707B0FF7D17F2
:10249000F98FD5BFA54763F8B704138765FF931776
:1024A00017008322C500BA971D433313F30013436B
:1024B000F3FF33735300B397F600B3E767005CC5CF
:1024C000994763E3C7047D16931726003E96585933
:1024D000FD47B397C70093C7F7FFF98FB395C500C2
:1024E000DD8D4CD982809397150003230501AE97AB
:1024F0001D473317F7001347F7FF33776700B3978C
:10250000F6005D8F18C96DBFB14763E2C70265165B
:10251000931726003E961859FD47B397C70093C7F7
:10252000F7FFF98FB395C500DD8D0CD982804D166C
:102530001317260054553A96FD47B397C70093C723
:10254000F7FFF58FB395C500DD8D4CD582805C41DA
:10255000370700FA7D17F98F5CC15C41DD8D4CC1F6
:1025600082801C4141677917F98F1CC12320050027
:102570002322050023240500B70702402326050077
:10258000138787006317E500D8431367F700D8C3A4
:1025900082801387C7016316E500D8431367070FCE
:1025A000FDB7138707036318E500D8438566938654
:1025B00006F0558FE9BF138747046315E500D8433C
:1025C000BD66C5BF138787056316E500D843B70608
:1025D0000F00C5B71387C7066316E500D843B706D3
:1025E000F000C1BF13870708E314E5FAD843B70624
:1025F000000FC1B71841E177BD0794517D8F9C450D
:10260000D58F9449D58FD449D58F944DD58FD44D3E
:10261000D58FD451D58F9455D58FD98F1CC1DC451A
:102620005CC19C411CC5DC415CC582801C4189C5E4
:1026300093E717001CC1828041677917F98FDDBFCE
:102640001C4101C6DD8D0CC1828093C5F5FFFD8D57
:10265000DDBFB70702409C437D8D3335A0008280EB
:10266000B7070240C8C38280EFD29FA3EFF07FFE7E
:102670006FD0BFA3B7070240C8C38280584103236D
:1026800005004C4537060140930706403E979346A8
:10269000F3FFB1C583250640F58D2320B640D04316
:1026A000F18ED4C31443B3E6660014C318419047B7
:1026B0009346F7FF758E90C7D047F18ED4C7144567
:1026C00041466399C6009447D98E94C7D447558F25
:1026D000D8C78280B6979443558F98C382801C4395
:1026E000F58F1CC38280B70701401387074083A77B
:1026F0000740584B698F09C77D8D3335A000828014
:1027000001458280B707014023AAA74082809445F3
:1027100093F7060193F2F60081C7DC41B3E2F200C1
:1027200083D3050093F7F30FA5C3032305006111BD
:1027300022C226C081471304800293048004054707
:102740003316F70033F7C3006312E60293952700B0
:102750003D473317B7001347F7FF33736700B3954F
:10276000B20033E36500639D860050C985072147A9
:10277000E397E7FC12442320650082442101828014
:10278000E39696FE10C9DDB7828008456D8D33351E
:10279000A000828048456D8D3335A00082800CC931
:1027A00082804CC9828037070140144786058D47D7
:1027B000B397B70093C7F7FFF58F1CC71C47B31536
:1027C000B500DD8D0CC78280B737004088C382809A
:1027D000B7370040C8C38280B737004088C78280BF
:1027E000AD67373700409387A7AA1CC38280B567BF
:1027F000373700409387C7CC1CC3371702405C5360
:10280000898BF5DF828023A4A1D0828083A681D02A
:10281000854718216390F6021C31639CD7023C2146
:102820009A0793E707F8B7E600E093F7F70FBA9631
:102830002380F6408546935757003397E60054416E
:1028400089CE938707048A07B7E600E0B69798C356
:102850008280EDF33C219A07F9B793870706E5B725
:10286000377700401C4709C593E727001CC78280C3
:10287000F59BEDBF377700401C4BC19B5D8D08CBAE
:102880008280711102C0377700405C4793F707FCE4
:102890003EC082475D8D2AC082475CC7110182809D
:1028A000B77700409843759B98C3984313672700F8
:1028B00098C3B7F700E003A707D11367470023A821
:1028C000E7D005476311E50203A707D15D9B23A865
:1028D000E7D07300501037F700E0832707D1ED9B56
:1028E0002328F7D0828083A607D103A707D193F6C8
:1028F00006021367870223A8E7D003A707D113773F
:10290000F7FD558F23A8E7D003A707D113678700EA
:1029100023A8E7D07300501003A707D113678700DF
:102920007DB7371702401C430E0593F777F05D8D96
:1029300008C38280B7160240DC4241771307F77F55
:10294000F98F5D8DC8C28280EFD28FF537170240B4
:102950005C4391462A84B18B6385D700A14663808E
:10296000D708B7376E01938707601CC0B7160240BF
:10297000DC42918313F7F700B70700209387070D18
:10298000BA978C23DC42184093F5F50F93F70708AC
:102990003355B70081E73A85EFD0CFF348C008C47C
:1029A00048C4B7170240DC438D46AD83FD8B13D777
:1029B00037008A07F18BD98F13F6370113F73700E9
:1029C00063F4C600138747FFB70700209387C70B40
:1029D000BA978C23EFD00FF008C86FD00FED5C438F
:1029E000B777DC02938707C049B799C5371702400C
:1029F0005C4B5D8D48CB8280B7170240D84B1345A6
:102A0000F5FF798DC8CB828099C5371702401C4FDE
:102A10005D8D08CF8280B7170240984F1345F5FFB0
:102A2000798D88CF828099C5371702405C4F5D8DC4
:102A300048CF8280B7170240D84F1345F5FF798DF4
:102A4000C8CF828099C5371702405C475D8D48C763
:102A50008280B7170240D8471345F5FF798DC8C764
:102A6000828099C5371702401C4B5D8D08CB828050
:102A7000B7170240984B1345F5FF798D88CB8280BC
:102A80001357550085476319F700B71702409C4359
:102A900033D5A70005898280B7170240DC53CDBF2C
:102AA0001A218D6793870704B6217D8F9E21D58FCC
:102AB000D621D58FF621D58F9625D58FB625D58FE2
:102AC000D625D58FF625D58FD98F1EA19E291EA973
:102AD00082801E2189C593E707041EA18280C20758
:102AE000C18393F7F7FBC207C183C5BF5E2101C64F
:102AF000DD8D4EA1828093C5F5FFFD8DDDBF4EA516
:102B000082804A2582800A256D8D3335A00082801F
:102B10001E319206C207C183F99BC207C1831EB151
:102B20001A2D1E310353850142074183336366002A
:102B30001377C7F0558E518FB7360140C207420751
:102B4000231C6500938606C0C18341836306D500BC
:102B5000B70600406319D500F59BCD8F93E71700AA
:102B60001AAD1EB18280D59BCDBF1E312206420612
:102B7000C207C183BD9BC207C1831EB10353850138
:102B800085679387F7CF1A31B3F767000353850141
:102B90004182B20633636600558ED18FB73601404D
:102BA0004207C207231C6500938606C04183C18388
:102BB0006306D500B7060040631DD5009205137764
:102BC000F7FDD98DC205C18193E505011EAD0EB19A
:102BD00082801377F7F5D98DC5BF1E2137370140A5
:102BE000130707C0C207C1836306E500370700402B
:102BF0006316E500BA2193F7F7F8D98FFA2193F716
:102C0000F7CFC207C183D98F1EA1DE215EB59E21F9
:102C10001EB5B7370140938707C06314F5009C25A4
:102C20001EB985475EA982801E31922103D385009B
:102C3000C207C18393F7F7EFC207C1831EB11E31EC
:102C400056215A2DC207C183420741831377C7F823
:102C5000518FB22193F7F7DFC20633666600220672
:102C6000D18F13960701B7370140938707C0C18200
:102C70004182631FF502FD779387F77FF18FB225BD
:102C800003D3C5002206D18FD221C207C1832206F9
:102C900093F7F7BFD18F13960701F577FD17FD8ED8
:102CA000FE254182B3E767009207DD8EC206C1822E
:102CB000FE2156A15AAD5CDD12B18280FD575EA1A6
:102CC000231005002313050023110500230405002C
:102CD00082801E2189C593E717001EA18280C2074A
:102CE000C183F99BC207C183CDBF8357450491C5FA
:102CF0002167D98F2312F5048280C607C583DDBF03
:102D00005E2501C6DD8D4EA5828093C5F5FFFD8D44
:102D1000DDBF035385001A2D1E31420313530301F7
:102D2000C2074207C18392064183137383FF93F75F
:102D3000D7FD558EB365B3001377C7CFD18F0EA5DE
:102D400013671710C207C1831AAD1EB182801E21FE
:102D500089C593E707081EA18280C207C18393F744
:102D6000F7F7C207C183C5BF5E2DC207C183DD9BD4
:102D7000DD8D4EAD82804EB182801E2DC207C18393
:102D8000CD9BC207C1831EAD1E2DDD8D0EAD828091
:102D90001A2DFD779387F73FF98F1EAD1E2DA205E3
:102DA000DD8DC205C1810EAD8280EFD26FAF9E2155
:102DB000AA842E8481EF9625D221AE21EFF05FD533
:102DC0006E202685EFF07FFB6FD02FAE1147E39D7D
:102DD000E7FE9625D221AE21EFF03FD96E20268561
:102DE000EFF01FFBD5B793C5F5FFC205C1810EA952
:102DF00082801E294A25ED8F4205418189C76D8D4C
:102E00003335A00082800145828093C5F5FFC2055D
:102E1000C1810EA98280B747014093870780631E56
:102E2000F500EFD2EFA785451165EFF0BFC18145F1
:102E30001165EFF03FC16FD04FA78280EFD24FA650
:102E40001629F577FD17F58FF621DA252111D58F93
:102E50001EA95625FD779387379FF58FD6212A84A3
:102E60002EC0D58F9625D58FB625D58F5EA55E2928
:102E7000C207C18393F7F7CF5D8F5AA94800EFF0DF
:102E8000BFACB74701409387078082456312F406C1
:102E9000C2475A24139517003E9542070E054187F5
:102EA0003E958C41635807048605EFD0AFA2930589
:102EB00040062AC0EFD00FA2824793144500930525
:102EC00040063E85EFD0CFA35E24C207C18763D5FD
:102ED00007020E059305400613052503EFD08F9FCB
:102EE0001D89C98CC204C18006A461016FD0EF9B0B
:102EF000B24745B78A0555BF12059305400613052D
:102F00002503EFD02F9D3D89E9BF91C55E25096757
:102F1000D98F5EA582805A25F977FD17F98FD5BF25
:102F2000EFD20F98AA840144894537350140EFF06C
:102F30009FBD1DC1A68537350140EFF05FBC8545BB
:102F400037350140EFF03FBC15C137350140EFF098
:102F50005FBB1375F50F09A805041374F40F9307ED
:102F6000900CE313F4FC01456FD02F940504137407
:102F7000F40F9307900CE314F4FCF5B7EFD24F92E3
:102F8000AA84C14537150140EFF0DF807DD93714A1
:102F90000140854513050440EFF0BF802685EFF022
:102FA0003FF82685EFF0DFF7AA8485451305044036
:102FB000EFF0EFFE26856FD04F8FEFD26F8EAA8491
:102FC0002E84C14537150140EFF0CFFC7DD9B717EE
:102FD0000140138507408545EFF0AFFC13E5040879
:102FE000EFF01FF42285EFF0BFF3B71701408545DE
:102FF00013850740EFF0AFFA6FD02F8BEFD24F8AD7
:1030000071112EC0854763F7C704AA843284C14575
:1030100037150140EFF00FF87DD937150140854590
:1030200013050540EFF0EFF72685EFF07FEF8144C1
:103030000145EFF0FFEE8247A697850488A393F73A
:10304000F40FE3E787FE371501408545130505407A
:10305000EFF0EFF411016FD04F85EFD26F84711153
:103060002AC01DCE2E84B284C14537150140EFF031
:103070006FF27DD937150140854513050540EFF006
:103080004FF28247A29413E50708EFF07FE9631C33
:10309000940037150140854513050540EFF02FF0EA
:1030A00011016FD08F8008200504EFF07FE7C5B7CE
:1030B000EFC21FFFA5450545EFF03FF06FC0FFFED3
:1030C000EFC21FFEA1450545EFF03FEF6FC0FFFDCA
:1030D000EFC21FFD930580080545EFF01FEE6FC09E
:1030E000DFFCEFC2FFFB9305F00F4945EFF0FFEC6B
:1030F0006FC0BFFBEFC2DFFAEFF09FFC2945FD2157
:10310000EFF01FFDB707002083C5270E0D461945B8
:1031100093971500AE979165938545ECBE95EFF0BA
:10312000DFF3B707002083C5370E2545EFF0FFE832
:10313000AD452D45EFF07FE8930530023145EFF0C6
:10314000DFE7B707002083C5070EB707002083C756
:10315000170E920575458607BE9593F5E50FEFF0BE
:10316000DFE5B707002083C5470E794592059D0529
:1031700093F5F50FEFF07FE4814513050002EFF0C2
:10318000DFE3B14513051002EFF03FE3854513057A
:103190001004EFF09FE2EFF0BFF16FC01FF1EFC23C
:1031A0003FF0EFF0FFF0930540081305D004EFF077
:1031B000DFE09305F00F13054002EFF01FE08545B7
:1031C00013050004EFF07FDF9305F0094545EFF0AC
:1031D000DFDEEFF01FF13D45EFF05FDAAA85354500
:1031E000EFF0BFDD9305D0080545EFF01FDD194472
:1031F0007D141374F40F11C46145EFF03FD81189A9
:1032000065D905456FC07FEAEFC29FE9AA84EFF058
:103210003FEA930570081305D004EFF01FDA8145EB
:1032200013054002EFF07FD9930510041305000445
:10323000EFF0BFD89305700F4545EFF01FD8EFF0C2
:103240005FEAA68513052002EFF03FD73945EFF07E
:10325000FFD2AA853545EFF05FD611447D14137473
:10326000F40F19C413052002EFF05FD1E398A4FE18
:1032700001456FC09FE3EFC2BFE2130181FC2E86C0
:103280002E84AA850A8565213C18A297050413742B
:10329000F40F1307A00222852384E7FCEFF0DFF68A
:1032A0008A8501452286EFF05FDB9305B00805456E
:1032B000EFF0BFD00545EFF07FCC93078008631691
:1032C000F500EFF0FFDF054515A037150140930528
:1032D000000413050540EFF04FCB69DD4945EFF0E1
:1032E000FFC9EFF01FE0EFF0BFDD014513018103DF
:1032F0006FC0BFDBEFC2DFDA130141F32AC005451F
:10330000EFF0DFC7158995476304F500EFF03FE95B
:1033100083C781CF93F7F70F91E705451301C10CE0
:103320006FC0BFD84945238C01CEEFF03FC59377DE
:103330000504E5D71375050209C5EFF09FDA0945C5
:10334000F1BF4145EFF09FC3AA853545EFF0FFC6B9
:103350004D45EFF0BFC2370400209307540E9C2365
:1033600093060009AA84AA971304540E63D4F600A6
:1033700085471CA026864C000145EFF03FC8EFF0C2
:103380005FD689479386D1D9639EF4009C82130649
:10339000A0026391C7021082631AF60285479CA2BD
:1033A0000D45ADBFFC01A69703C677F39307A002B6
:1033B000630EF600024585471CA0130610098D47D1
:1033C00081459CA2EFC07FD8114589BF37450000D9
:1033D0008545130505ECEFF01FEAEFF05FDC0245D1
:1033E00026864C00A92604A08D479386D1D99CA29D
:1033F00001452DB7EFC2DFCA8565938585381385F2
:10340000C1D0EFF03FEF1DE5B70600209387560EC1
:1034100098236363E50298231377F70F01CF98236E
:103420001384C1D03A949823A30F04FE7D17137719
:10343000F70F98A36FC07FC705051375F50FF9B790
:10344000EFC21FC6854537150140EFF08FB5130554
:103450004006692A854537150140EFF04FB42945EC
:103460007122EFF03FC913052004EFF03FB1C947C7
:103470006314F5006FC07FC329458D2AEDB7EFC2F5
:103480003FC251116C808D478A8532C43EC22311E0
:103490000100EFF0CFA731016FC03FC1EFC25FC0A5
:1034A000854513054003EFF02FD6854537050010FD
:1034B000EFF06FD7130680028945371501403714A6
:1034C0000140EFF0DFFB130504404146930500087F
:1034D000EFF0FFFA1305044041468545EFF03FFA4F
:1034E0004146854537150140EFF07FF9130504404B
:1034F000130680049145EFF09FF81305044013066E
:10350000800293050004EFF09FF711469305000831
:1035100037150140EFF0BFF6130504804146914591
:10352000EFF0FFF51305048001468945EFF03FF504
:103530006146A14537150140EFF07FF44146D14582
:1035400037150140EFF0BFF3130504401306800464
:10355000E145EFF0DFF261469305000637150140C3
:10356000EFF0FFF1130504809145EFF04FA3C14543
:1035700037150140EFF0AFA2854513050440EFF089
:103580000FA26FC09FB2B707002083C7670E85C721
:10359000EFC21FB1914509C93715014013050580D8
:1035A000EFF02FA06FC07FB03715014013050580E5
:1035B000EFF0EF9EC5BF8280EFC29FAEB70700203D
:1035C00003A5870BB7157A0093850520EFC09FB040
:1035D0001375F50F2380A1DA93175500898F8A0799
:1035E0003E950E05239FA1D86FC03FACEFC25FABE5
:1035F00037F400E05C40AA85F99B5CC003D5E1D9B3
:10360000EFC05FAB08C8232404001C4093E71700F9
:103610001CC0B7F700E0D843058B75DF9843799B52
:1036200098C36FC09FA8EFC2BFA72A84116511116C
:10363000854513050502EFF02FBD930700027C803E
:10364000371501408D473EC28A85E1471305054085
:103650003EC4EFF0CF8B22C637440140B7070800C5
:103660006C00130504803ECA02C8231C0100EFF061
:10367000EFFC854513050480EFF03F8971016FC0B1
:10368000DFA2EFC2FFA13111AA84AE8601436355C8
:103690000500B304A0400543014713041700B38796
:1036A0008600A945268532C81AC63AC436C23EC02D
:1036B000EFC05FA7824713050503A945A38FA7FEA7
:1036C0002685EFC0BFA0A54292462247324342461C
:1036D00063CE920263080300130427000247930796
:1036E000D0021CA3A287930500033387F60063C2B0
:1036F000C70213D6F701B29723000700858701465A
:103700007D17634BF60051016FC03F9A2287AA8450
:1037100069B70CA38507D1BFB385C60003030700B3
:103720000385050005062380650008A3D1BFB3C744
:10373000A5008D8B3307C50081E78D4763E7C7027E
:10374000AA87637EE50A942185078505A38FD7FEA6
:10375000E3EBE7FE8280942185078505A38FD7FEE2
:10376000E3EBE7FE02441101828093763500AA87DD
:1037700089CA942185078505A38FD7FE93F6370064
:10378000C5BF9376C7FF138606FE63F5C7067111A2
:1037900022C0C04903A3050083A38500C0CB804D90
:1037A00023A0670003A3450080CFC04D23A267007C
:1037B00083A2C50003A3050193854502C0CF03A4DE
:1037C000C5FF23A4770023A6570023A8670093878B
:1037D000470223AE87FEE3EEC7FAE3F3D7F8904142
:1037E0009107910523AEC7FECDBF9041910791058A
:1037F00023AEC7FEE3EBD7FEE3E7E7F482808280E7
:10380000AA87850703C7F7FF6DFF3385A7407D159E
:1038100082800000808080808080808080808080A6
:1038200000000038443C44443E00000000C04058C2
:1038300064444444F80000000000003C444040441C
:1038400038000000000C04344C4444443E000000A6
:1038500000000038447C40403C000000001C207CFC
:10386000202020207C000000000000364C4444440E
:103870003C04380000C0405864444444EE0000005A
:1038800000100070101010107C0000000010007874
:10389000080808080808700000C0405C48705048DC
:1038A000DC00000000301010101010107C00000030
:1038B000000000E854545454FE000000000000D8FA
:1038C00064444444EE000000000000384444444492
:1038D00038000000000000D8644444447840E00010
:1038E000000000364C4444443C040E000000006CD0
:1038F000302020207C0000000000003C44380444BC
:10390000780000000000207C202020221C00000005
:10391000000000CC4444444C36000000000000EE9F
:103920004444282810000000000000EE4454545481
:1039300028000000000000CC48303048CC000000D7
:10394000000000EE44242818101078000000007CCD
:10395000481020447C00000007FFFF001FFFFF808D
:103960003FFFFFC07FFFFFE0FFFFFFF0FFFFFFF023
:10397000FFFFFFF0FFFFFFF0FFFFFFF0FFFFFFF093
:10398000FFFFFFF07FFFFFE07FFFFFE03FFFFFC093
:103990000FFFFF00000000000E001F003F807FC0EF
:1039A000FFE0FFE0FFE07FC03F801F000E0000004F
:1039B00000000E001B003180318031803180318069
:1039C00031801B000E00000000000000000000001D
:1039D000000006003E000600060006000600060085
:1039E000060006003FC000000000000000000000CC
:1039F00000000F00198031803180030006000C00A8
:103A0000180030003F8000000000000000000000AF
:103A100000003F006180018003001F0003800180DF
:103A2000018061803F0000000000000000000000F5
:103A30000000070007000F000B001B0013003300FD
:103A40003F8003000F800000000000000000000025
:103A500000001F801800180018001F00118001804E
:103A6000018021801F000000000000000000000015
:103A7000000007801C0018003000370039803180BA
:103A8000318019800F0000000000000000000000DD
:103A900000007F0043000300060006000600060049
:103AA0000C000C000C0000000000000000000000F2
:103AB00000001F003180318031801F003180318053
:103AC000318031801F000000000000000000000075
:103AD00000001E0033003180318033801D80018062
:103AE000030007003C000000000000000000000090
:103AF000000018002400240018C007801E00318038
:103B000002400240018000000000000000000000B0
:103B100000000000000000000C000C00000000008D
:103B200000000C000C00000000000000000000007D
:103B30000000000000000000000000000000000085
:103B40000000000000000000000000000000000075
:103B500021F0111011100110020EF40013F81108D9
:103B60001112109014A0184010A003180C060000A9
:103B70007FFC44447FFC01007FFC01001FF010101B
:103B80001FF010101FF010101FF01010FFFE0000AB
:103B90000000003FFF004000804000804000804067
:103BA00000E04000E04000804000804000803FFF97
:103BB0000000000038070040808040808041008085
:103BC0004100E04020E04020804000804040803CB8
:103BD0000700000000000000000000001F0001803E
:103BE00001801F80318033801DC000000000000074
:103BF0000000000000007000300030003700398005
:103C000030C030C030C039807700000000000000B4
:103C10000000000000000000000000001F003180D4
:103C200060C07FC0600030C01F8000000000000046
:103C300000000000000007E00C000C003F800C00BA
:103C40000C000C000C000C003F8000000000000085
:103C50000000000000000000000000001DC03380D4
:103C600061806180618033801D80018001801F0040
:103C70000000000000007000300030003700398084
:103C800031803180318031807BC000000000000035
:103C90000000000000000600060000001E000600F4
:103CA00006000600060006003FC0000000000000FD
:103CB0000000000000007000300030003780360047
:103CC0003C003C003600330077C0000000000000DC
:103CD0000000000000001E000600060006000600AE
:103CE00006000600060006003FC0000000000000BD
:103CF0000000000000000000000000001F003180F4
:103D000060C060C060C031801F0000000000000083
:103D10000000000000000000000000007700398073
:103D200030C030C030C039803700300030007C00F7
:103D30000000000000000000000000001DC03380F3
:103D400061806180618033801D800180018007C0B7
:103D50000000000000000000000000007B801CC08C
:103D600018001800180018007F0000000000000074
:103D70000000000000000000000000001F803180F3
:103D80003C001F00038031803F0000000000000065
:103D90000000000000001800180018007F00180044
:103DA00018001800180018800F0000000000000024
:103DB000000000000000000000000000F1E060C012
:103DC00064C06EC03B803B8031800000000000007A
:103DD00000000000616265666768696B6C6F7071F6
:103DE00072737477000004401BB010101010638CC5
:103DF0004444444444442398101010101BB0044021
:103E000000000000960C0000C80C0000D40C00005C
:103E1000DE0C0000E60C0000EE0C0000300000009C
:103E20006261746164630000727373690000000072
:103E30006C6F7261696400006C69676874000000EF
:103E4000303100007368616B650000006672657157
:103E500000000000706F7765720000006C6F726187
:103E6000627700006C6F726173660000B0C0B22FA1
:103E7000B303B619B701ACCBAB0EB404A8193A051D
:103E8000B808E824E948EA22C630C718F01F280419
:103E90003E2A2E20000C06001C1F0FF1002D2F3C87
:103EA0006F1C0B000000070D110F211129000000ED
:103EB0000019324B640000003C3C00003C00000054
:103EC0002A0000006B00006B40006B80006BC0009C
:103ED0006C00006C40006C80006CC0006D00006DD8
:083EE00040006D80006DC00080
:103EE8001438000007000C00143800000100080016
:103EF800903B000014000B00D43B00000B001000A6
:103F0800B03900000B001000E43D00000F000F0066
:103F1800583900001D001000983900000B000B00F4
:103F2800503B00001000100001010100383E000065
:103F38003C2C014000000000443E0000E600002048
:103F4800000000004C3E0000E20000204034000069
:103F5800543E0000E3000020403400005C3E0000B6
:103F6800E000002040340000643E0000E40000202F
:103F78004034000065000000000000000000000060
:103F88000000000001000000010203040506070804
:103F98000102030405060708006CDC020204060897
:103FA80004080C10081018201020304020406080B1
:103FB80001020304050607080102030405060708B1
:083FC800070106FF07010100DB
:00000001FF
