:100000006F10704C000000008C1600009A16000063
:1000100000000000000000000000000000000000E0
:1000200000000000000000000000000000000000D0
:10003000C41C000000000000C41C00000000000000
:10004000C41C0000C41C0000C41C0000C41C000030
:10005000AE170000101900003A160000C41C000082
:100060001E160000C41C0000C41C0000C41C0000BC
:10007000C41C0000C41C0000C41C0000C41C000000
:10008000C41C0000C41C0000C41C0000BC180000FC
:10009000C41C0000C41C0000CC15000000000000BF
:1000A000511126C022C206C4828282441244A24058
:1000B000310182802A86014593F6150091C232955E
:1000C00085810606F5F9828000000000634E050276
:1000D00063C305042E86AA857D5515C285466378BF
:1000E000B6006356C00006068606E36CB6FE014500
:1000F00063E4C500918D558D85820582F5FA828075
:100100008682C93F2E8582823305A04063D70500D1
:10011000B305B040C1B7B305B0408682653F330533
:10012000A0408282868263C70500634905005D376F
:100130002E858282B305B040E35B05FE3305A04007
:10014000513F3305B040828200003D432A876373EC
:10015000C3029377F700BDEFADE5937606FF3D8AC6
:10016000BA960CC34CC30CC74CC74107E36BD7FE10
:1001700011E28280B306C3408A0697020000969679
:100180006780A6002307B700A306B7002306B700C1
:10019000A305B7002305B700A304B7002304B700E5
:1001A000A303B7002303B700A302B7002302B700DD
:1001B000A301B7002301B700A300B7002300B700D5
:1001C000828093F5F50F93968500D58D9396050162
:1001D000D58D61B793962700970200009696868288
:1001E000E78086FA9680C1171D8F3E96E374C3F8A8
:1001F000A5B737070020930787098AA7AEA7D6A718
:10020000AAABCEABF2A7239807001307870909C64C
:100210009306400B6315D6004AA36EA38280CEA33B
:10022000EAA38280B707002093878709FA279306FD
:10023000A00542074183630FD70063E4E60015C3BE
:1002400082809306400B6303D7029306E010630C91
:10025000D70282809E27FD178D8FAA8513950701EF
:100260004181EFF2FFE3EF00105F81B59A27BE27CF
:100270007D173305A740FD174205B385B74041817F
:10028000C205C181F9BFBE27FD17898F2E859395C1
:100290000701C5BFEFF2DFE013971600C206C18267
:1002A00093041500958CC204B28221112E837D1710
:1002B000C18001466370E60813041300158C4206E2
:1002C000420441824180814732C091A813950401C4
:1002D000418563400504131604014186634B060201
:1002E000B70500209385850983D3450063537502C4
:1002F000EE216350B6021686A28526851ACA36C834
:100300003EC63AC416C2393F5243C246B24722479C
:10031000924285070504C2074204C1874180E3E792
:10032000E7FA82478504C204138617004206C1809B
:10033000418649B7610195BBEFF29FD6130181FD5C
:100340003ECEB307A6403ACC13D7F741B98F998F69
:10035000E207E1873387B6403EC49357F7413D8FAC
:10036000998FE207E1873EC6854732C036C23EC854
:10037000AA822E846364C500FD573EC885473ECAE5
:1003800092476364F400FD573ECA3247A2470246D3
:10039000B384E700238E5180A38E8180370700202D
:1003A0001307070023ACE18092461685A28516D07C
:1003B000EF00B01A82520147D257050785461377DE
:1003C000F70F639CD7003A858D4516D23AD00D3B86
:1003D0001375F50F0257925211C9F24662461685FF
:1003E000A2853AD216D07D3512578252B2479396E3
:1003F000140063CFF60082476380F204B247A697E9
:1004000093940701C247C184BE92C20293D20201F3
:10041000A24793961400E3C1D7FA9247630EF40003
:10042000A247A69793940701D247C1843303F400EF
:1004300013140301418049B713151700EF00F03082
:10044000130181029DB1EFF2BFC5311136C682564C
:100450002AC232C43AC82E84BE84B1EAAE8602C033
:10046000E13D12464247B246A687A285328502C0C8
:10047000E13522464247B246A687A285328502C0B0
:10048000653DB24642472246124502C0A687B68560
:1004900065350DA0424722461245A286A28502C0BC
:1004A000A687593D13031400131403014180B2477A
:1004B000E3F287FE5101D5BEEFF29FBE01113AC2B1
:1004C000370700202AC03EC613070701AE843684D2
:1004D0006395E6048D6781459387C778C146338568
:1004E000F50008216308C5148505E39AD5FE01458A
:1004F000B707002093878709DA2382466365D70010
:10050000FE2363F7970282453735000026861305E0
:100510008520EF205047056149BE0305C102EE2248
:100520003305A640413E4E209D058D816136C9B7F9
:100530001C4072204E20AA973EC482479386F4FF47
:10054000B2961386F7FF2E96238EF180C2064206DE
:10055000A38E9180C1823E854182A68523AC818095
:10056000EF00A07F938781813EC8A247A68633878C
:100570009640722042074183636CC70AC2479C437E
:10058000EE23CA23053E131415009307F04763C5F5
:1005900087002285EF00701B93050048228559369D
:1005A0003DD993070048E3D887F6EF00101AA5B7A6
:1005B000137677009375770032C41306000833561C
:1005C000B6408C236D8E29C23ECE82473246B68518
:1005D0003305F700420541813ACC36CAA131D246F3
:1005E0006247F247A2451D466393C500850705078C
:1005F000420741835220E36DC7FA1D8A11C2850765
:100600008506C206C182A5B7924541667D16E38B79
:10061000C5FC3ECE82472E86B6853305F7004205DF
:1006200041813ACC36CAFD3EF2476247D2465DBFB1
:100630000147C9B75E236A239D078D873EC49D3C51
:10064000A247AA853E85DDB5EFF29FA5130181FD86
:100650003EC683074103AA832EC23EC88357810347
:1006600032C4B6823ACA3ECC2E842A83B284038630
:10067000040001E6130181020DBCB7060020938738
:10068000860903D74200CE23938686091A9783D71B
:1006900062006346B7003E94420441801E83FA2202
:1006A000B306F4006354D70012441E8331476392AB
:1006B000E704A2476247B387F440C207C183631AC5
:1006C000F702C247416796863EC0B2471A851307B4
:1006D0000780A2851ED216D01ACEF93B72438252F1
:1006E000925383D7420085043E9342031353030180
:1006F000BDBFC247524796863EC0B2471A85A28503
:100700001ED216D01ACE4D3B925382527243D1BFA5
:10071000EFF21F9931118545056502C002C202C47E
:1007200002C623180100EF10F037B70704013EC0DE
:10073000B70700023EC4A1473EC68A859D473735AC
:100740000140FC8002C2EF10903B854537350140E7
:10075000EF10103E510191BAEFF29F941301C1FBCB
:100760002A842EC6B28481451306C002280836C4E6
:100770003AC23EC0D93A85450545EF10D0302285B2
:10078000EF10E07682473243A246124741463ED6FA
:100790002C088D6722851ACC36D23ADC3EDE26CE76
:1007A00032D002D402D802DA82C0EF10607D054652
:1007B00089452285EF109001E147FC8008088547B4
:1007C0003ECA23090100EF10501A130141046FF0D3
:1007D000DF8DEFF2FF8CAA84014489453735014053
:1007E000EF1050381DC1A68537350140EF10103786
:1007F000854537350140EF10F03605C937350140E2
:10080000EF1010361375F50F39A805041374F40FA3
:100810009307900CE313F4FC373500001305C52350
:10082000EF20B01801456FF05F8805041374F40FD2
:100830009307900CE31EF4FA3735000013050525E5
:10084000C5B7130740069377F50F6374A7009307A6
:10085000400637370140232CF7C282801307400639
:100860009377F50F6374A70093074006373701406D
:10087000232AF7C28280EFF2BF8283C7E181054756
:100880001384E1816385E70485C709476383E7062D
:10089000182093171700BA9713972700B70700205F
:1008A00093874702BA979C4791C382976FF0EFFFF7
:1008B0009307400663D9A70013054006B7370140E8
:1008C00023AEA7C2F1B7E35B05FE0145C5BF9307A1
:1008D000400663DCA700130540061375F50FB70744
:1008E00000202380A702B13F65B7E35805FE01450C
:1008F000EDB79307400663DCA700130540061375A8
:10090000F50FB7070020A380A702893F51B7E3582E
:1009100005FE0145EDB7EFF2AFF8211132C4AA820E
:100920001304007E99E141647D14894713971200F6
:1009300063E857148D679387C779BA97962393977F
:10094000320096978607D907C207C1833703002074
:1009500016973EC60A07930743023E971043930437
:10096000430291E13684A246B2459303703E930759
:1009700010061EC201473EC00145A28716C8E931D4
:10098000C2420D464C081393120016930A039A9420
:10099000DC408823EF20E00F8840EF20B005A2471D
:1009A00093053500CA23EFF0EFF0B2459303703E94
:1009B0001EC293070003B7030020420593868301FC
:1009C000014750083EC04181A287BD398840EF20D1
:1009D0007002A24793053500CA23EFF0AFEDB703CD
:1009E00000209383830103D74300A246B2459317A7
:1009F0001700BA973E954205A28701471306500299
:100A0000418102C0553CDC40C24221679C23130750
:100A1000F7BE02C0139317003E930A033303F3405B
:100A200093973200BE92860293826202C20293D2F0
:100A300002019384A200C204C1800E038547A686EA
:100A40001306C006968551451AC616C4ED3A3243C0
:100A50009307300663D36702930540061A85EFF0CB
:100A6000EFE6A24213064501854742063EC02287B3
:100A7000A686418296855145F93261016FF0EFE219
:100A8000C166FD166DBDEFF2AFE13704002083476C
:100A900034025111B5C3014793060008130600083C
:100AA0008145AA8401453D269307703E3EC29307C7
:100AB00010063EC0B7060020C16737360000FD179C
:100AC0009386060101471306467A894513050002FD
:100AD000A53E13043402814783C5E1813E85268605
:100AE0009D8D93B515003EC43D35A2470D47850742
:100AF000E394E7FE2300040031016FF00FDBEFF217
:100B00002FDA03A441988544631B940403C7E18151
:100B100093171700BA9713972700B70700209387FA
:100B20004702BA97DC4388231505B133B707002085
:100B3000A3818702B707002083A407058547639E2A
:100B4000F4001384E18108208D450505EFF08FDD69
:100B5000B707002008A0A38197026FF00FD589473F
:100B6000E31AF4FC03C7E18193171700BA971397B0
:100B70002700B707002093874702BA97DC438823F2
:100B80006D15D539B7070020A381970265B7EFF23D
:100B90002FD137070020C1662A8413072702FD16CC
:100BA000014689451305A005EF00807F2285E13DC0
:100BB000B9376FF08FCFEFF2AFCE370500201305B6
:100BC0000501F137B707002023A8070423A20198E5
:100BD0006FF0AFCDEFF2CFCC2A84914537150140AD
:100BE000EF10E053C14537150140EF1080532285C7
:100BF000CD36C14537150140EF1060526FF0EFCA96
:100C0000EFF20FCA2A84914537150140EF10605169
:100C1000C14537150140EF10C05022855D3EC145EA
:100C200037150140EF10A04F6FF02FC8EFF24FC7FC
:100C30004545F93713058007EF1050576FF0EFC6A1
:100C4000EFF20FC6F134373501408545130505C075
:100C5000EF10901F0546894537350140EF10E06ED3
:100C600037050240854513050503EF10E034B7E76B
:100C700000E03707000123A0E7104D3F01456FF06A
:100C8000CFC2EFF2EFC1611185452A8437150140CB
:100C9000EF1020495145EF1070518545371501403F
:100CA000EF10E0475145EF107050370780009387F1
:100CB00001821307070898C313056003C0A389378F
:100CC0001305800C013F01478D64930700041374E2
:100CD000F70F63D5E70021016FF02FBD1386447C29
:100CE000329705049377F40F002393968701E186EA
:100CF000228536C03EC229379375740F1306100241
:100D00001387447C82466388C50245466305C40256
:100D100041041374F40F85453946924763F3850007
:100D200005463384C7001316840161866397C600A5
:100D300093168401E186368749BF93871600BA96D9
:100D40008822E207E18732C23EC0693582471246F7
:100D5000BE868D671387477CD1BFEFF26FB48505E0
:100D600023830182A3830182939705016111850684
:100D7000C1833EC00905939706010906C1839314F8
:100D800005011305A002131406013EC2C1808D3D6A
:100D900013D58400813513F5F40F2D3D4180135593
:100DA00084000D3D1375F40F35351305B002893DF0
:100DB000824713D58700393D0880293D924713D5D6
:100DC0008700093D088239351305C002153D210110
:100DD0006FF0AFADEFF2CFAC5111AA8432843AC4B8
:100DE0002EC036C29D3F22473145135387008147AD
:100DF0001377F70F9302F01113868182B14563CB0D
:100E0000F20093861700B303F60023806300B296C6
:100E1000890798A2FD15E5F57D156DF1914537150A
:100E20000140EF10C02FC14537150140EF10602F72
:100E300037030240B73501409306001293070008BC
:100E4000130700021305030313868182B105EFF037
:100E5000BF900546894537350140EF10004F3703F5
:100E60000240130503038545EF1000153305944038
:100E7000B1452D05EFF08FA5924702472A84B14571
:100E80003385E7402D05EFF06FA4AA852285EFF0AA
:100E90006FA28147635DF504894537350140EF1046
:100EA000604C7DD937050240814513050503EF10DD
:100EB000A0100146894537350140EF100049130560
:100EC0000020EF10C013C14537150140EF10202559
:100ED0001304900C854537350140EF10A0480DC133
:100EE00037350140EF10C0471375F50F2DA003C72C
:100EF00001981377F70F59DF23800198850759BFB1
:100F00007D141374F40F79F43735000013050525AB
:100F1000EF20A029014531016FF02F99EFF24F9892
:100F200005458533014793060008130600088145EF
:100F300001454D35C166FD160146930500081305B0
:100F40000008EFF00FAB6FF04F96EFF26F95711155
:100F500091452A8437150140EF10601CC1453715B3
:100F60000140EF10001C9307001263D487001304A4
:100F70000012014689453735014023800198B704A6
:100F80000240EF10803C138504038145EF10C0023E
:100F900093160401B7350140138681829307000838
:100FA0000147C18213850403B105EFF0EFFA05464E
:100FB000894537350140EF104039138504038545D5
:100FC000EF00907F9A87968403C701981377F70FF5
:100FD00065DF1305002023800198EF10200189456B
:100FE00037350140EF1000387DD937050240814583
:100FF00013050503EF00507C014689453735014054
:10100000EF10A03413050020EF00707F9307900CC1
:101010008545373501403EC0EF10C034824715C5C5
:10102000C14537150140EF10800F22869305F00F60
:1010300013858182EFF06F9137350140EF10403218
:101040001375F50F11016FF04F86FD1793F7F70F2A
:10105000E1F30145C5BFEFF2AF842A8403C5D18116
:1010600083A781813385A5407111CE2332C0EFF073
:101070006F8483C7C1819306E0111D8C2A940604F6
:1010800063E58604938461829C20B1451395370003
:101090003E951605EFF08F8302473305A4409387F2
:1010A0008182AA971356870090A398B39306E01104
:1010B000631DD50013050012493D9C20B1079CA07B
:1010C000938771829823310798A311016FE0FFFD88
:1010D000EFE21FFD83C7C1941384C194938481946C
:1010E00091EB9C4081EBB7070040DE331CA083A747
:1010F000C1979CC0904003A7C1971C206317E600CE
:10110000370700405A33638FE7083707004003A5CD
:10111000C1974E331317160032970A073E9793175D
:101120001500AA978A07AE9763DBE70037450000F2
:1011300085471305858023A2F198EF200007B707A4
:10114000004003A5C197CE339C40139717003E97EC
:101150001C200A073E9793171500AA978A07AE9797
:10116000635BF7003745000089471305458123A2DB
:10117000F198EF20800383A7C1979CC0B707004078
:10118000DE331CA093874198D82319EB3745000024
:10119000054713054582D8A323A20198EF20E0005C
:1011A00001459D296FE07FF09307402863ECA70875
:1011B0001307401A81476379A708EFE27FEE930790
:1011C000C01D63FFA7049307D02263F1A70693070E
:1011D000002663F3A70693055028130710260D4435
:1011E000198D4205418193171500998DAA978E0795
:1011F000C2053E95C181EFE07FED916793874784FB
:10120000A2979C23130740063E959377F50F13751D
:10121000F50F6374A700930740063E856FE0FFE873
:101220009305D01D1307501A01445DBF9305E022BA
:101230001307D01D05446DB7930510261307E02250
:10124000094479BF930740063E858280EFE25FE55F
:10125000130141FC2A842EC2B28481451306C002C8
:10126000080836C0EFE07FEE85450545EF10A00188
:101270002285EF00D047924782460C083EC893076C
:1012800000083ED2930700103ED4930700403ED69C
:10129000930700023ED822858D6736CE3EDA26CAF5
:1012A00002CC02D002DCEF00B04D05468945228514
:1012B000EF00D051D9477C84280085473EC62305DE
:1012C0000100EF00906A1301C1036FE01FDEEFE23F
:1012D0003FDD2111614681450A85EFE01FE7854525
:1012E00013050020EF00107C316537240140EF002A
:1012F000306E13050440EF009025854737070E0038
:101300008A85130504403EC43AC6230AF10002C090
:1013100002C202C8EF001026B70500021305044000
:10132000EF00B03B854513050440EF00902A85454A
:1013300013050440EF00F02813050440EF00902A45
:10134000930404402685EF00902A6DFD13050440A8
:1013500037240140EF00302A930404402685EF0033
:10136000302A6DFDB7040240BD46138601959305F2
:10137000C44413858400D93D138584008545EF005E
:10138000B0439D460546130504408545EF005029AE
:10139000854513050440EF00302761016FE0FFD061
:1013A000EFE21FD001112AC603D501973AC42E845B
:1013B000B28436CAD53B930740061383E196224791
:1013C00063E2A70E2300A30083470300B7060020B3
:1013D0003EC4224683C7860493868604918F13D623
:1013E000F741B18F918F15466344F6001C23C5CB9E
:1013F000A2472300070022469CA2B7060020938242
:10140000860183D742001307300613952700637EB9
:10141000C7083247898F2245BA97C207C1830D4654
:101420006C083EC8EF10E0669302007E9307703EA2
:101430003EC2930700033EC04245D2473703002017
:101440009306830126877008A28516CCEFF0CF9F04
:10145000D24732453703002026879306830102C016
:101460002946A285EFF04F8583A78197054737036B
:101470000020E242639DE70C130383010355430000
:10148000B247B706002002C03E95420596872687E0
:10149000938686000546A2854181EFF0EF810561C4
:1014A0006FE0BFC02300F30005B732473385A74084
:1014B00022463A95420525474181636BC70493074D
:1014C000703E3EC237460000930700033EC02687A9
:1014D000A687938686011306C684A285EFF0CF9671
:1014E000B70700209382870183D742003247054621
:1014F0006C08B307F740C207C1833EC81383E19667
:1015000003450300EF10E058C1629382028039BFA7
:10151000AA97C207C1833EC89307703E3EC23746B2
:101520000000930700033EC02687A68793868601A6
:1015300013060685A285EFF02F911383E1960345EC
:10154000030009466C08EF10C054FD42C5B5A1FB6D
:101550001303830103554300B247B70600202687D3
:101560003E9542059687938686000146A285418175
:1015700002C016C6EFE05FF42245E5458144EFE086
:101580007FB5B2421373F50F9303740093F7F40F12
:10159000E3F767F013961400269613060607420633
:1015A00093053400939603014182C205168702C059
:1015B0008547C182C18132851AC816C61EC4EFE0B4
:1015C000BFD785044243B242A243C9B737070040A0
:1015D0005E3371118545C207C1837C805E37370554
:1015E0000040C207C1837C81EF10801819C938817F
:1015F000348005839387C19763FDE6009843050710
:1016000098C3854537050040EF100018110173009D
:10161000203098437D17EDB723AAA1968280130549
:101620000020EF00301D01C905471305002023806D
:10163000E198EF00D01C730020300945EF00901BAB
:1016400031C1938701951387E701014596238907E7
:10165000369542054181E31BF7FEBD45EFE09FA7AC
:101660009387E19892234205418113870197B3063E
:10167000A6400AA3A506C94563E8D50012A30945FB
:10168000EF00F017730020308AA3D5BF3745000064
:1016900013058591EF10703101A037450000130547
:1016A000C58FEF10903001A0EFE29F9F1301C1FDA5
:1016B00085451305100302C402C602C802CA02CC43
:1016C00002CE02D002C002C2EF00D03D3715014069
:1016D0009147130480042C00130505407C8422C824
:1016E000EF00901B2C00894437150140648422C808
:1016F000EF00901A914705443ECA4808C1473ECEC4
:1017000022D002CCEF0030100947C14748083ACA3E
:101710003ECE22D002CCEF00100F930740110A8575
:101720007C80448122C2EF0050243745000013051D
:10173000C58EEF109027130141026FE01F97EFE273
:101740003F961384C19823AA01961C2093F7F70FA4
:10175000A9CFB707002003A5C706B7450F0093859B
:101760000524EFE03F979305F5FFC2055146C1817F
:10177000130540066D2685452D457921EFF04FCCA8
:10178000EFF0FFB4716513050520EF10C025374554
:1017900000001305C592EF105021B707002023A8C1
:1017A000070423A20198230004006FE01F90711129
:1017B000114522C0EF00D00B29C1374500001305A9
:1017C0004585EF10901E1145EF00700C3715014054
:1017D00091451305054037040020EF00B0131304B2
:1017E000C40421E9374500008547130545861CC020
:1017F000EF10B01B2315040099370945EF0050077F
:101800000DC5894537150140EF00D01093878197AA
:1018100059ED05473745000098C31305058DEF10B6
:10182000D018313F0945EF009006024411017300C2
:1018300020303745000013054587EF1010173A2474
:101840008567938787BB63EDE702854737450000CF
:101850005CC013050588EF1050155C2499EF3745DF
:10186000000085471305858B2322040023200400F4
:10187000231504005CA4EF1050138D471CC09DBFBE
:10188000374500008947130585895CC0EF10F011CA
:101890005C2423150400F5F3854737450000232217
:1018A0000400232004005CA41305858B6DB7374525
:1018B000000023A007001305058E95B7711122C003
:1018C000373401408545130504C0EF00706A0DCD23
:1018D0008545130504C0EF00306B37150140914575
:1018E00013050540EF00100305E13707002013073B
:1018F000C7043E27930610038507C207C1833EA78E
:1019000063F4F60089471CC30244110173002030C0
:1019100013050020EF00C07509C513050020EF0076
:10192000007773002030EFE2AFF761220545EF004A
:101930007003716513050520EF10E00A37040020DD
:101940008325C406374500001305C593EF10B00387
:10195000EF108002EF10A01EEF00107585452D4599
:1019600065240325C406B7450F0093850524EFE0E1
:101970006FF69305F5FFC2055146C1811305400678
:10198000792AB707002003C50702EFE09FEBB707EE
:10199000002003C51702EFE07FECEFF06FAAEFF035
:1019A000EFD7EFF0DF92EFF03FD08565938505FA32
:1019B0001945ED2483C7C19893F7F70FE5FFEFF0C2
:1019C0008F9FEFF0EFF0EF008077EDB7EFE24FED94
:1019D000371402401C403707FFF8414593E71700D2
:1019E0001CC05C40F98F5CC01C403707F7FE7D17B8
:1019F000F98F1CC01C403707FCFF7D17F98F1CC0F6
:101A00005C4041777D17F98F5CC0B7079F001CC40D
:101A1000EF00E07A1C4C93E707021CCCB71701409B
:101A200003A70740938607401377F7F023A0E7400A
:101A300003A707401367070823A0E74089479CCA0C
:101A4000B7F7FF1F03C5477D9307F00F6305F50048
:101A50007D89EF00C076B72702409843C176FD1616
:101A6000719B98C398431367170098C3B717024038
:101A7000D843D8C3D843758FD8C3D843B70600011D
:101A8000D8C39843558F98C3984393166700E3DDF6
:101A900006FED843B7160240719BD8C3D8431367DC
:101AA0002700D8C32147DC42B18BE39EE7FE6FE0FD
:101AB000CFDFEFE2EFDE371702405C433704002050
:101AC0009146B18B1304C4066385D700A146638297
:101AD000D704B7376E01938707601CC0B716024062
:101AE000DC420840918313F7F700B7070020938783
:101AF000C705BA978C23DC4293F5F50F93F70708D7
:101B00003357B50081E7EFE0EFDC2A8718C06FE0BC
:101B1000CFD95C43B777DC02938707C07DBFEFE284
:101B20002FD8AA840565130181FD2E841305058035
:101B3000854532C002CC02CE02D002D202C602C813
:101B4000231A0100EF0000766086373401406C00F4
:101B5000130504C0E4802319010023170100EF00DE
:101B6000B00DC1679387070702463ECC9147FC86BC
:101B7000B707080089072C08130504C03ED0F0877A
:101B8000EF007010130504C08145EF00D0332C081E
:101B9000130504C0EF00D015130504C08145EF0004
:101BA00070332C08130504C0231E0100EF00B01D84
:101BB000130504C08145EF005033130504C085456B
:101BC000EF00D02E130504C08545EF00F027130564
:101BD00004C08545EF00D02505468545130504C0A2
:101BE000EF00F027930730027C82480085473EC40F
:101BF000230301009D2B8545130504C0EF0090369B
:101C0000130181026FE06FCAEFE28FC901112A84CC
:101C1000AE840545854575252800EF0010202C0071
:101C200037050040648460862317010023150100F6
:101C300023080100EF005000814601468D4537051D
:101C40000040EF00F022914705443ECA4C08A947E6
:101C500037050040FC8622CCEF00502D8545370526
:101C60000040EF0070320546854537050040EF0023
:101C7000101F930760020A857C8022C223010100A5
:101C8000ED21814537050040EF00102785453705D8
:101C90000040EF00F01905616FE02FC1EFE24FC087
:101CA0002A8415657111130555552EC0AD2913757C
:101CB000F40FB52982452E85BD29512141291101F5
:101CC0006FE0AFBE01A097F1FF1F938121BD13818B
:101CD00081F617250000130565CE97E5FF1F938554
:101CE000653217E6FF1F1306663B63FAC5008322C1
:101CF000050023A0550011059105E3EAC5FE17E58F
:101D0000FF1F1305A539938581996377B5002320BB
:101D100005001105E36DB5FEB7220000938202882D
:101D2000739002308D427390428097E2FFFF93825E
:101D3000622D93E2320073905230EFF03FC9970268
:101D40000000938282BE7390123473002030B72754
:101D5000014093870740631EF500EFE26FB48545AD
:101D600013050020B52B814513050020952B6FE04E
:101D7000CFB382805C413707F1FF1307F7EF7D8F08
:101D8000DC419441A207D58FD98F5CC11C4537F740
:101D9000F1FF1307D77FD4457D8F9C49D58F94459C
:101DA0008606D58FD98F1CC55C55370710FF7D1768
:101DB0007D8FDC29FD1793F7F70FD207D98F5CD5FC
:101DC00082801C4589C593E717001CC58280F99B5A
:101DD000EDBF1C4589C593E707101CC5828093F7AA
:101DE000F7EFE5BF1C4593E787001CC582800845D7
:101DF0000D81058982801C4593E747001CC58280C0
:101E000008450981058982801C4591C53707500026
:101E1000D98F1CC582803707B0FF7D17F98FD5BFDA
:101E2000A54763F8B704138765FF9317170083224C
:101E3000C500BA971D433313F3001343F3FF337305
:101E40005300B397F600B3E767005CC5994763E3B7
:101E5000C7047D16931726003E965859FD47B39741
:101E6000C70093C7F7FFF98FB395C500DD8D4CD937
:101E700082809397150003230501AE971D47331702
:101E8000F7001347F7FF33776700B397F6005D8FCE
:101E900018C96DBFB14763E2C702651693172600E4
:101EA0003E961859FD47B397C70093C7F7FFF98FC0
:101EB000B395C500DD8D0CD982804D161317260011
:101EC00054553A96FD47B397C70093C7F7FFF58F70
:101ED000B395C500DD8D4CD582805C41370700FA93
:101EE0007D17F98F5CC15C41DD8D4CC182801C4146
:101EF00041677917F98F1CC12320050023220500B3
:101F000023240500B7070240232605001387870016
:101F10006317E500D8431367F700D8C3828013879F
:101F2000C7016316E500D8431367070FFDB7138792
:101F300007036318E500D8438566938606F0558F3E
:101F4000E9BF138747046315E500D843BD66C5BFE5
:101F5000138787056316E500D843B7060F00C5B79A
:101F60001387C7066316E500D843B706F000C1BF64
:101F700013870708E314E5FAD843B706000FC1B783
:101F80001841E177BD0794517D8F9C45D58F9449C9
:101F9000D58FD449D58F944DD58FD44DD58FD4516D
:101FA000D58F9455D58FD98F1CC1DC455CC19C4120
:101FB0001CC5DC415CC582801C4189C593E71700C4
:101FC0001CC1828041677917F98FDDBF1C4101C6B2
:101FD000DD8D0CC1828093C5F5FFFD8DDDBFB70798
:101FE00002409C437D8D3335A0008280B7070240BC
:101FF000C8C38280EFE2CF8ADD376FE00F8BB7076F
:102000000240C8C382805841032305004C4537066F
:102010000140930706403E979346F3FFB1C58325E1
:102020000640F58D2320B640D043F18ED4C314432F
:10203000B3E6660014C3184190479346F7FF758EC8
:1020400090C7D047F18ED4C7144541466399C60066
:102050009447D98E94C7D447558FD8C78280B697F6
:102060009443558F98C382801C43F58F1CC3828094
:10207000B70701401387074083A70740584B698F74
:1020800009C77D8D3335A000828001458280B70766
:10209000014023AAA7408280944593F7060193F25A
:1020A000F60081C7DC41B3E2F20083D3050093F769
:1020B000F30FA5C303230500611122C226C0814787
:1020C000130480029304800405473316F70033F7A6
:1020D000C3006312E602939527003D473317B7000C
:1020E0001347F7FF33736700B395B20033E365001E
:1020F000639D860050C985072147E397E7FC12449A
:1021000023206500824421018280E39696FE10C957
:10211000DDB7828008456D8D3335A00082800CC903
:1021200082804CC98280B737004088C38280B7372D
:102130000040C8C38280B737004088C78280AD673F
:10214000373700409387A7AA1CC38280B56737370B
:1021500000409387C7CC1CC3371702405C53898B60
:10216000F5DF828023A8A198828083A60199854704
:1021700018216390F6021C31639CD7023C219A0718
:1021800093E707F8B7E600E093F7F70FBA962380D6
:10219000F6408546935757003397E600544189CE61
:1021A000938707048A07B7E600E0B69798C3828052
:1021B000EDF33C219A07F9B793870706E5B7371780
:1021C00002401C430E0593F777F05D8D08C38280B3
:1021D000B7160240DC4241771307F77FF98F5D8D18
:1021E000C8C28280EFD2DFEB371702405C439146D2
:1021F0002A84B18B6385D700A1466380D708B7379F
:102200006E01938707601CC0B7160240DC429183C1
:1022100013F7F700B707002093874708BA978C2376
:10222000DC42184093F5F50F93F707083355B700D4
:1022300081E73A85EFD01FEA48C008C448C4B71701
:102240000240DC438D46AD83FD8B13D737008A07F0
:10225000F18BD98F13F6370113F7370063F4C600FB
:10226000138747FFB707002093870707BA978C2388
:10227000EFD05FE608C86FD05FE35C43B777DC025E
:10228000938707C049B799C5371702405C4B5D8DEE
:1022900048CB8280B7170240D84B1345F5FF798DA4
:1022A000C8CB828099C5371702401C4F5D8D08CF7F
:1022B0008280B7170240984F1345F5FF798D88CF7C
:1022C000828099C5371702405C4F5D8D48CF828070
:1022D000B7170240D84F1345F5FF798DC8CF8280DC
:1022E00099C5371702405C475D8D48C78280B71794
:1022F0000240D8471345F5FF798DC8C782801A215F
:102300008D6793870704B6217D8F9E21D58FD621B7
:10231000D58FF621D58F9625D58FB625D58FD62585
:10232000D58FF625D58FD98F1EA19E291EA9828013
:102330001E2189C593E707041EA18280C207C183BD
:1023400093F7F7FBC207C183C5BF5E2101C6DD8DD0
:102350004EA1828093C5F5FFFD8DDDBF4EA5828025
:102360004A2582800A256D8D3335A00082801E317A
:102370009206C207C183F99BC207C1831EB11A2D01
:102380001E3103538501420741833363660013778F
:10239000C7F0558E518FB7360140C2074207231C44
:1023A0006500938606C0C18341836306D500B706E6
:1023B00000406319D500F59BCD8F93E717001AAD48
:1023C0001EB18280D59BCDBF1E3122064206C207B8
:1023D000C183BD9BC207C1831EB1035385018567BD
:1023E0009387F7CF1A31B3F7670003538501418212
:1023F000B20633636600558ED18FB736014042076F
:10240000C207231C6500938606C04183C18363060F
:10241000D500B7060040631DD50092051377F7FD80
:10242000D98DC205C18193E505011EAD0EB1828033
:102430001377F7F5D98DC5BF1E2137370140130734
:1024400007C0C207C1836306E50037070040631673
:10245000E500BA2193F7F7F8D98FFA2193F7F7CF70
:10246000C207C183D98F1EA1DE215EB59E211EB594
:10247000B7370140938707C06314F5009C251EB948
:1024800085475EA982801E31922103D32500C207B1
:10249000C183F99BC207C1831EB11E3156211A2D7B
:1024A000C207C183420741831377C7F8518F922532
:1024B000F59BC20633666600D18F3736014013069E
:1024C00006C0C1826310C502B225DD9B03D3E500BF
:1024D000D18FD221ED9B93F6F6CFD18FD2253366E3
:1024E0006600D18E56A11AADFA2158D91EB182804C
:1024F0001E3165771307F7CFC207C183BD9BC207A3
:10250000C1831EB11E31562103D38500C207139625
:102510000601162DC18393F7F7FD758F9621418231
:10252000A206558FB62142074183B3E666009206A4
:10253000D58FB7360140C207938606C0C183631E9C
:10254000D502B62593F7F7F703D3C5009206D58FCA
:10255000D621C207C183920693F7F7FBD58FFD768C
:102560009386F63FF18EF225C207C183336666007B
:102570000A06D18E13960601418252A11AADFA21A4
:1025800018DD1EB182801E31922103D38500C2075F
:10259000C18393F7F7EFC207C1831EB11E315621E5
:1025A0005A2DC207C183420741831377C7F8518F61
:1025B000B22193F7F7DFC206336666002206D18F99
:1025C00013960701B7370140938707C0C182418244
:1025D000631FF502FD779387F77FF18FB22503D351
:1025E000C5002206D18FD221C207C183220693F7EC
:1025F000F7BFD18F13960701F577FD17FD8EFE25E6
:102600004182B3E767009207DD8EC206C182FE21D8
:1026100056A15AAD5CDD12B18280FD575EA1231038
:102620000500231305002311050023040500828003
:102630001E2189C593E717001EA18280C207C183AE
:10264000F99BC207C183CDBF8357450491C521675C
:10265000D98F2312F5048280C607C583DDBF5E25AE
:1026600001C6DD8D4EA5828093C5F5FFFD8DDDBFD2
:10267000035385001A2D1E31420313530301C20771
:102680004207C18392064183137383FF93F7D7FDFB
:10269000558EB365B3001377C7CFD18F0EA51367DF
:1026A0001710C207C1831AAD1EB182801E2189C5D1
:1026B00093E707081EA18280C207C18393F7F7F74B
:1026C000C207C183C5BF1E2DC207C183DD9BDD8D3F
:1026D0000EAD82801A2DFD779387F77FF98FA205C3
:1026E000CD8FC207C1831EAD82805E2DC207C1831C
:1026F000DD9BDD8D4EAD82804EB182801E2DC207E6
:10270000C183CD9BC207C1831EAD1E2DDD8D0EADD5
:1027100082801A2DFD779387F73FF98F1EAD1E2D0E
:10272000A205DD8DC205C1810EAD8280EFD25F971B
:102730009E21AA842E8499EB9625D221AE21EFF01A
:102740001FC36E2026855D3F6FD03F961147E39DE6
:10275000E7FE9625D221AE21EFF01FC76E20268519
:102760004D3FDDB793C5F5FFC205C1810EA982803B
:102770001E294A25ED8F4205418189C76D8D33356C
:10278000A00082800145828093C5F5FFC205C1810A
:102790000EA98280EFD2DF901629F577FD17F58F0D
:1027A000F621DA252111D58F1EA95625FD779387AD
:1027B000379FF58FD6212A842EC0D58F9625D58FA9
:1027C000B625D58F5EA55E29C207C18393F7F7CFE3
:1027D0005D8F5AA94800EFF0FFA0B74701409387EB
:1027E000078082456312F406C2475A2413951700E6
:1027F0003E9542070E0541873E958C41635807047C
:102800008605EFD03F8D930540062AC0EFD09F8C00
:10281000824793144500930540063E85EFD05F8EB6
:102820005E24C207C18763D507020E0593054006E3
:1028300013052503EFD01F8A1D89C98CC204C180EE
:1028400006A461016FD07F86B24745B78A0555BFA0
:1028500012059305400613052503EFD0BF873D8978
:10286000E9BF91C55E250967D98F5EA582805A258B
:10287000F977FD17F98FD5BF93F5F51F4EA182802B
:102880000A216D8D3335A0008280EFD27F815111F6
:102890006C808D478A8532C43EC223110100EFF05F
:1028A000AFFF31016FD07F80EFD28FFF85451305D9
:1028B0004003EFF03F9F8545370500103714014076
:1028C000EFF03FA013050480014689457D3F1305C5
:1028D000048061469145553F414685453715014085
:1028E0006D3713068004894537150140793F41460D
:1028F000914537150140513F6146A14537150140CB
:1029000069374146C1453715014041376146930556
:10291000000237150140953F6146930500043715C5
:102920000140EFF09FF61305044061468545EFF046
:10293000DFF513050440130680049145EFF0FFF422
:102940001305044013068004A145EFF01FF413059E
:10295000044013068004C145EFF03FF361461305C0
:10296000044093050002EFF05FF2C14537150140C6
:10297000EFF0EFFA6FD06FF3EFD28FF2B7070020CE
:1029800003A5C706B7157A0093850520EFD08FF40D
:102990001375F50F238BA19893175500898F8A071C
:1029A0003E950E05239AA1986FD02FF0EFD24FEFEE
:1029B00037F400E05C40AA85F99B5CC003D54199DF
:1029C000EFD04FEF08C8232404001C4093E7170002
:1029D0001CC0B7F700E0D843058B75DF9843799B9F
:1029E00098C36FD08FECEFD2AFEB2A841165111131
:1029F000854513050502EFF0FF8A930700027C80EE
:102A0000371501408D473EC28A85E14713050540D1
:102A10003EC4EFF06FE822C637440140B707080014
:102A20006C00130504803ECA02C8231C0100EFF0AD
:102A30007FD6854513050480EFF0BFE271016FD0AA
:102A4000CFE6EFD2EFE57111AE840144635FC402BB
:102A5000B7470140138707803A859305000432C0C9
:102A6000EFF01FE2B74701401387078002466DD59C
:102A70003387840083050700138507800504C2059A
:102A8000C181EFF07FDF0246D1B7328511016FD0EF
:102A9000CFE1EFD2EFE03111AA84AE860143635556
:102AA0000500B304A0400543014713041700B38792
:102AB0008600A945268532C81AC63AC436C23EC029
:102AC000EFD04FE6824713050503A945A38FA7FE64
:102AD0002685EFD0AFDFA5429246224732434246D9
:102AE00063CE920263080300130427000247930792
:102AF000D0021CA3A287930500033387F60063C2AC
:102B0000C70213D6F701B297230007008587014655
:102B10007D17634BF60051016FD02FD92287AA840D
:102B200069B70CA38507D1BFB385C60003030700AF
:102B30000385050005062380650008A3D1BFEFD2F9
:102B40002FD6B7170240D8539316570063D006020A
:102B50003745000013050595892D371702405C5352
:102B6000B7060001D58F5CD36FD02FD4D8539316FE
:102B7000470063D706003745000013050596E9BFF7
:102B8000D8539316370063D7060037450000130566
:102B90000597D9B7D8539316270063D70600374552
:102BA0000000130505984DBFD8539316170063D73F
:102BB0000600374500001305059979BFDC53E3DEB5
:102BC00007F8374500001305059A79B7411106C685
:102BD0002EC00DCD1841AA8705C358417D5511CB94
:102BE0008546631BD70098472300070023A20700F0
:102BF0000545B240410182809847824614A3984718
:102C0000050798C7D8437D17D8C3DDB705468A8521
:102C1000EFF03FE3F1BF011122CC2EC206CE26CA4F
:102C20002A84814793050002634506029245BE95BA
:102C3000838505008DE563D8C70263D4E702198E4A
:102C40001305000293F526002AC089C501E7930504
:102C500000032EC0858A81449DEAB28415A08507B1
:102C6000F1B71D8EF1BF0146E1BF824522853AC80A
:102C700032C63EC4EFF09FF5A24732464247FD14EC
:102C8000E34590FEB284635306008144058E63C71A
:102C9000E702A68792463387974036978305070059
:102CA0009DEDB28463469004635306000146F240F2
:102CB0006244D2443305F600056182801D8FBA87D5
:102CC00093050003228532C83EC63AC4EFF01FF0D8
:102CD000B24722474246FD17E5F7BA945DBF228509
:102CE00032C63EC4EFF09FEEA247324685075DB77D
:102CF0008245228532C43EC2EFF05FEDFD142246CC
:102D000092474DB7397106DE22DC26DA3EC23283A5
:102D10003A8691ED92469307000301476C08FC86C2
:102D2000EFF07FEFF2506254D25421618280AA8486
:102D30003684AE8791CA294701446317E30063D5FF
:102D40000500B307B04005448646A30901021307F6
:102D50003103938666FC36C49A853E8532CA3AC8EA
:102D60001AC63EC0EFD0CFB9A5468247324342478C
:102D7000524663D4A600A246369513050503930672
:102D8000F7FFA30FA7FE9A853E8532CC3ACA1AC830
:102D90003EC636C0EFD00FB4B247424352476246F8
:102DA00063FD670409CC29CE9247898BB1CB93058B
:102DB000D002268532C4EFF07FE122467D1692478D
:102DC000918B85C706479307100632C4930500030D
:102DD00026856311F704EFF07FDF930580072685D2
:102DE000EFF0DFDE22460904791616479246824547
:102DF0002685EFF05FE2229535B7AA870247A9BF83
:102E000082469307D0020144A38FF6FE9307E7FFA3
:102E10003EC075B7EFF09FDB93058005C9B701454C
:102E2000828001458280130181FD22D026CE06D208
:102E30002AC4AE82328402C681448385020091EDA9
:102E4000A24789C781453E85EFF05FD89250025472
:102E50002685F24413018102828093075002638920
:102E6000F500224516C88504EFF05FD6C24205A0E2
:102E70008387120013871200639DB70022459305D4
:102E800050023AC8EFF09FD442478504BA828502C7
:102E90006DB7DDD79306B0026389D70463C8F60027
:102EA000930630026386D704814705A09306D002BB
:102EB000638AD70093060003E398D7FE13872200A6
:102EC000894721A013872200854783060700130640
:102ED000B0026383C6046341D60213063002638BDB
:102EE000C602BA820145A54681A0138722006DBFA4
:102EF000138722009147D1BF1306D0026389C60011
:102F000013060003E39FC6FC93E7270031A00507E3
:102F10008547C1BF93E747000507E1B713162500B2
:102F2000329506053A95850203860200130706FDD1
:102F30009375F70FE3F4B6FE1307E0029946631E9C
:102F4000E60085028146A54503860200130606FDBC
:102F50001377F60F63F5E50236C603870200130602
:102F6000A006630DC70A6343E6021306C0046307A5
:102F7000C70A13068006630CC70881452DA813975E
:102F80002600BA968606B29685027DBF13064007D4
:102F90006306C7081306A0076302C7081306C00626
:102FA0008145631AC700038612008D456314E6004D
:102FB00085029145850203860200930300061307EC
:102FC000100663C4C300130710049303700663C4A0
:102FD000C30693035006635676189303700463C1C7
:102FE000C30493055004635EB61613073004E31060
:102FF000E6EA18409303440016CA230CE1001EC8F9
:10300000A30C01000147BE862A862C0849A8038626
:1030100012008145E311E6FA890271BF8502B1BF52
:1030200093063006E307D6FC63CFC60693068005F9
:103030006303D602A9BD930630076304D60463CBAD
:10304000C6029306F0066305D60E9306000793E7C3
:103050004700E31ED6E291466392D50C93038400A9
:103060000C40504016CA3AC23EC01EC8AA8701474B
:10307000C14681A893065007630BD60693068007C6
:1030800045BF1840B7460000930344009385069B54
:1030900011C3BA85324716CA1EC8BE862A86224583
:1030A000EFF07FB715A091466395D5029303840096
:1030B0000C40504016CA3AC23EC01EC8AA870547F7
:1030C000A9462245EFF0BFD5C243AA941E84D2423E
:1030D0007DBBB2460C4016C836C23AC011042A87DE
:1030E000854629462245EFF0FFC1AA9441B3914697
:1030F000639DD500930384000C40504016CA3AC229
:103100003EC01EC8AA87014765BFB2460C4016C81C
:1031100036C23AC011042A878146E1B7B24616C8C2
:103120000C40414636C23AC011042A8781465DBF31
:103130009146639ED500930384000C40504016CA0C
:103140003AC23EC01EC8AA870147A1469DBFB246EB
:103150000C4016C836C23AC011042A87814621465F
:1031600051B70C401306840040403AC22A872245DA
:1031700032C83EC02286B687A94616CAEFF07FCA7B
:10318000AA944244A9B71301C1FD2EC832CAAA8528
:103190001008014506C636CC3ACE3ED032C0EFF01C
:1031A0009FC8B240130141028280411122C426C24D
:1031B00006C61C21AA840144DC8183073100050472
:1031C00099EFA9479305310005460145DC81EFF0F1
:1031D0005F872285B24022449244410182800546A5
:1031E000930531000145EFF0DF85B38784009C2310
:1031F000DC81E1B7AA87850703C7F7FF6DFF338539
:10320000A7407D15828000005061696E745F447232
:10321000617743686172206572726F722C205870FA
:103220006F696E74203D2025642C2059706F696E83
:1032300074203D2025640D0A0000000073656E6453
:1032400020737069206F757474696D65210D0000BD
:1032500072656320737069206F757474696D652180
:103260000D00000080808080808080808080808051
:1032700000000038443C44443E00000000C0405878
:1032800064444444F80000000000003C44404044D2
:1032900038000000000C04344C4444443E0000005C
:1032A00000000038447C40403C000000001C207CB2
:1032B000202020207C000000000000364C444444C4
:1032C0003C04380000C0405864444444EE00000010
:1032D00000100070101010107C000000001000782A
:1032E000080808080808700000C0405C4870504892
:1032F000DC00000000301010101010107C000000E6
:10330000000000E854545454FE000000000000D8AF
:1033100064444444EE000000000000384444444447
:1033200038000000000000D8644444447840E000C5
:10333000000000364C4444443C040E000000006C85
:10334000302020207C0000000000003C4438044471
:10335000780000000000207C202020221C000000BB
:10336000000000CC4444444C36000000000000EE55
:103370004444282810000000000000EE4454545437
:1033800028000000000000CC48303048CC0000008D
:10339000000000EE44242818101078000000007C83
:1033A000481020447C00000000000E001B0031800B
:1033B000318031803180318031801B000E0000006F
:1033C0000000000000000000000006003E000600B3
:1033D0000600060006000600060006003FC00000CA
:1033E000000000000000000000000F001980318084
:1033F0003180030006000C00180030003F80000000
:10340000000000000000000000003F00618001801B
:1034100003001F0003800180018061803F000000E5
:1034200000000000000000000000070007000F007F
:103430000B001B00130033003F8003000F800000CF
:10344000000000000000000000001F8018001800AD
:1034500018001F0011800180018021801F000000E2
:103460000000000000000000000007801C001800A1
:103470003000370039803180318019800F00000022
:10348000000000000000000000007F004300030077
:1034900006000600060006000C000C000C000000F0
:1034A000000000000000000000001F00318031809B
:1034B00031801F0031803180318031801F00000059
:1034C000000000000000000000001E0033003180FA
:1034D000318033801D800180030007003C00000024
:1034E000000000000000000000001800240024007C
:1034F00018C007801E003180024002400180000099
:1035000000000000000000000000000000000000BB
:103510000C000C000000000000000C000C0000007B
:10352000000000000000000000000000000000009B
:10353000000000000000000000000000000000008B
:1035400000000000000000000000003FFF004000FD
:10355000804000804000804000E04000E04000806B
:103560004000804000803FFF00000000380700401E
:1035700080804080804100804100E04020E0402089
:10358000804000804040803C0700000000000000B8
:10359000000000001F00018001801F803180338007
:1035A0001DC00000000000000000000000007000CE
:1035B000300030003700398030C030C030C0398032
:1035C0007700000000000000000000000000000084
:1035D000000000001F00318060C07FC0600030C06C
:1035E0001F8000000000000000000000000007E055
:1035F0000C000C003F800C000C000C000C000C00B8
:103600003F800000000000000000000000000000FB
:10361000000000001DC033806180618061803380C4
:103620001D80018001801F0000000000000070006C
:103630003000300037003980318031803180318076
:103640007BC0000000000000000000000000060039
:10365000060000001E000600060006000600060028
:103660003FC00000000000000000000000007000EB
:1036700030003000378036003C003C00360033001C
:1036800077C00000000000000000000000001E00E5
:1036900006000600060006000600060006000600FA
:1036A0003FC000000000000000000000000000001B
:1036B000000000001F00318060C060C060C0318029
:1036C0001F000000000000000000000000000000DB
:1036D000000000007700398030C030C030C0398031
:1036E0003700300030007C000000000000000000C7
:1036F000000000001DC033806180618061803380E4
:103700001D800180018007C0000000000000000053
:10371000000000007B801CC0180018001800180072
:103720007F0000000000000000000000000000001A
:10373000000000001F8031803C001F0003803180AA
:103740003F00000000000000000000000000180022
:10375000180018007F0018001800180018001880C2
:103760000F0000000000000000000000000000004A
:1037700000000000F1E060C064C06EC03B803B8090
:1037800031800000000000000000000061626566FA
:103790006768696B6C6F707172737477FF07E0070D
:1037A000E0FF0000CEFCD1CCBBFA0000B1B3B9E21F
:1037B00000000000B7E7C9C800000000D5D5C3F776
:1037C00000000000B0C0B22FB303B619B701ACCBF4
:1037D000AB0EB404A8193A05B808E824E948EA226F
:1037E000C630C718F01F28043E2A2E20000C060001
:1037F0001C1F0FF1002D2F3C6F1C0B000000070D4C
:10380000110F211129000000456E636F646572205D
:1038100075700D00456E636F64657220646F776E1E
:103820000D00000064697361626C6520656E636FF2
:1038300064655F737472756374206F706572617410
:10384000650D00000019324B640000003C3C000094
:103850003C000000B0B4BCFCD6D0B6CFB1BBB4A520
:10386000B7A20D0073746172742070726573730D6A
:1038700000000000656E642070726573730D0000B7
:103880004B45595F4556454E545F434C49434B2089
:103890006F6E74696D650D004B45595F4556454E19
:1038A000545F4C4F4E475F434C49434B206F6E74FF
:1038B000696D650D0000000064697361626C6520CC
:1038C0006B6579206F7065726174650D0000000092
:1038D00073746172742063686167650D0000000095
:1038E000656E642063686167650D00004558544942
:1038F0005F494E545F494E49540D00007374617224
:103900007420486172644661756C745F48616E64CE
:103910006C65720D000000007374617274204E4D6E
:10392000495F48616E646C65720D00007379737451
:10393000656D5F776F6B6575700D00000D0A5379CB
:103940007374656D436C6B3A25640D0A00000000CA
:1039500050494E5253545F464C41470D0000000001
:10396000504F525253545F464C41470D00000000E7
:103970005346545253545F464C41470D00000000DB
:10398000495744475253545F464C41470D0000008D
:10399000575744475253545F464C41470D0000006F
:1039A0004C5057525253545F464C41470D00000053
:0839B000286E756C6C29000003
:1039B80064320000010008004835000014000B00C4
:1039C8008C3500000B001000A83300000B0010001D
:1039D80032500101AC3700003C2C014000000000CF
:1039E800B43700002000002000000000BC370000B1
:1039F8002100002000000000650000000000000019
:103A080000000000000000000100000001020304A3
:103A1800050607080102030405060708006CDC0216
:103A28000204060804080C10081018201020304062
:103A38002040608001020304050607080102030410
:083A480005060708000000005C
:00000001FF
